:100000000C9449020C9466020C9466020C946602ED
:100010000C9466020C9466020C9466020C946602C0
:100020000C9466020C9466020C94F5210C94C9227F
:100030000C94891C0C9466020C9466020C94660263
:100040000C9466020C9466020C9466020C94660290
:100050000C9466020C94101D0C9466020C946602BB
:100060000C9466020C9466020C9466020C94660270
:100070000C9466020C9466020C9466020C94660260
:100080000C9466020C9466020C9466020C94660250
:100090000C9466020C9466020C9466020C94660240
:1000A0000C9466020C9466020C946602A900AA00E5
:1000B0002778287823782478217822782B00140058
:1000C0001A000800150017001C0018000C00120090
:1000D00013002A00290004001600070009000A0086
:1000E0000B000D000E000F0033003400E1001D0076
:1000F0001B00060019000500110010003600370033
:1001000038001E7CE0000000E300E20022522C00D8
:10011000000021525000510052004F0035001E00D7
:100120001F002000210022002300240025002600BB
:10013000270001004C003A003B003C003D003E001F
:100140003F002D002E002F0030003100390040000C
:1001500041004200430044004500320064004B006F
:100160004E001E7C01000100010001000100AE00F4
:1001700000000100AC00AA00A900AB0035021E027D
:100180001F0220022102220223022402250226024B
:10019000270201004C003A003B003C003D003E00BD
:1001A0003F002D022E022F023002310239004000A2
:1001B00041004200430044004500320264024A000C
:1001C0004D001E7C01000100010001000100AE0095
:1001D00000000100AC00AA00A900AB000000000074
:1001E000207821782378247825782678277828782D
:1001F00000004C00000000000000000000000000B3
:1002000000000000000000000000000000000000EE
:1002100000000000000000000000000000000000DE
:1002200000000000000000000000000001000000CD
:1002300000000100000000000000000000000000BD
:10024000000000002A2B2800000000000000000031
:100250000000000000000029000000002C1E3420D7
:10026000212224342627252E362D3738271E1F20FD
:100270002122232425263333362E37381F04050642
:100280000708090A0B0C0D0E0F1011121314151686
:100290001718191A1B1C1D2F3130232D3504050684
:1002A0000708090A0B0C0D0E0F1011121314151666
:1002B0001718191A1B1C1D2F3130354C0000000077
:1002C000000000000000000000000000000000002E
:1002D000000000000000000000000000000000001E
:1002E0007E0F00D4FFFFFFC7000000780E0356000A
:1002F0004F00490044003400300000000A0356005B
:100300004F004900440000000403090409025B0097
:10031000030100A0FA090400000103010100092102
:1003200011010001224000070581030800010904B2
:100330000100020300000009211101000122220036
:1003400007058203200001070503032000010904BB
:100350000200010300000009211101000122B60082
:100360000705840320000112010002000000085567
:10037000F031350001010200010660FF0961A101B1
:100380000962150026FF0095207508810209631592
:100390000026FF00952075089102C005010902A101
:1003A0000185020901A10005091901290815002587
:1003B0000195087501810205010930093115812572
:1003C0007F95027508810609381581257F9501758D
:1003D000088106050C0A38021581257F95017508EC
:1003E0008106C0C005010980A101850319012AB752
:1003F00000150126B700950175108100C0050C0994
:1004000001A101850419012AA002150126A0029567
:100410000175108100C005010906A10185060507C7
:1004200019E029E7150025019508750181020507E6
:10043000190029EF1500250195F0750181020508C5
:100440001901290595057501910295017503910121
:10045000C005010906A101050719E029E7150025D6
:10046000019508750181029501750881010507193B
:100470000029FF150026FF00950675088100050874
:1004800019012905950575019102950175039101E1
:10049000C00011241FBECFEFDAE0DEBFCDBF11E0F8
:1004A000A0E0B1E0E4E1FBE402C005900D92AC3ABB
:1004B000B107D9F722E0ACEAB1E001C01D92A33C3C
:1004C000B207E1F70E9467110C9434250C940000E8
:1004D00023E041E062E00E94F302089584E0089581
:1004E0008430B8F46430A8F44C3098F450E09CE0C8
:1004F000699F400D511D1124FA0190E3899FE00D81
:10050000F11D1124EE0FFF1FE454FF4F85919491CC
:10051000089580E090E0089584E00895843088F4A0
:1005200061110FC090E0880F991FE1E0E427E80F08
:10053000F92FF11DEE0FFF1FE455FF4F85919491A8
:10054000089580E090E0089581E0089581E00895A5
:100550000E94A602089508950E94AB020895A5E0A6
:10056000B0E0E5EBF2E00C94A02449835A8330918B
:10057000B30189819A81311119C0662399F0222330
:1005800089F00E945408182F682F89819A810E944F
:10059000210869817A81812F0E94D00E2596E3E09F
:1005A0000C94BC240E943B08182FF3CF0E945408DF
:1005B00069817A81F1CFFC01262F408151816281CE
:1005C000738184810E94AF02089581E00895CF93E2
:1005D000DF93EC0160E00E94DB02BE010E94AC02EE
:1005E000DF91CF910895E1E0F0E0DF0102C0AA0FB2
:1005F000BB1F6A95E2F7BD01DF0102C0AA0FBB1F56
:100600004A95E2F76A2B01C0EE0F2A95EAF7962F7A
:100610009823961302C08E2B0895E0958E2308959B
:10062000242F462F682F8091C9010E94F3020E9457
:10063000830708950E940B1008950E940F100895DB
:1006400008950E941A070E9420032FEF84E39CE084
:10065000215080409040E1F700C0000008950E94C2
:1006600021030E94341D08950E9421030E94451D0C
:1006700008950F931F93CF93DF938C0161E00E9445
:10068000DB02EC01B8010E945E14811106C080E01B
:10069000DF91CF911F910F910895B801CE010E9473
:1006A000A8028823A1F3B801CE010E94AA1A8823C8
:1006B00071F3B801CE010E947C15882341F3B80183
:1006C000CE010E941C1A882311F3F801828188232D
:1006D00061F0C330FCE7DF07E9F058F4C115ECE73F
:1006E000DE07A9F0C130DC47B9F0C8010E94A402BE
:1006F000CFCFCB358CE7D807A9F0CC35ECE7DE07B8
:1007000071F0CA35DC4789F70E94510CEECF0E9488
:100710002F03BDCF0E94590C0E943403B8CF0E9412
:10072000470CE3CF0E94550CE0CF0E94651C0E944D
:10073000BF0308950E94C3030E946A1C0895089590
:100740000E949F03089581E008950895CF93DF9359
:10075000D82F0E94A303C82F882319F08D2F0E9441
:10076000A5038C2FDF91CF9108950895CF93C82FC3
:100770000E94A0038C2F0E94A603CF91089580E0D1
:100780000E94B60308950E94F81A0E94B6030895C5
:10079000CF930E94F81AC82F8091AE018C1779F080
:1007A000C093AE010E94F51C6093AF017093B0013D
:1007B0008093B1019093B2018C2F0E94B603CF9128
:1007C0000895ABE0B0E0E7EEF3E00C94A1244F8392
:1007D000588769877A878B8761110E94920B1E82E6
:1007E0001D8285E0FE013796DE01119601900D9283
:1007F0008A95E1F78C819D81892B61F449815A8129
:100800006B817C818D819E810E94BB0A2B96E2E0E8
:100810000C94BD2489819A8189238F3F79F3CE017D
:1008200001960E94E5028111E9CFF0CFFC018081A1
:1008300091810E9481080895662329F00E94EB119E
:100840000E94BE1208950E944512FACFCF93C82F7E
:100850008823B9F08CEF8C0F813AA8F46C2F80912B
:100860000001909101010E948B1B882329F08C2F9D
:100870000E94520B0E94B30B8C2F0E944A0B0E94C5
:10088000B30BCF91089580E28C0F883048F4C77085
:1008900081E001C0880FCA95EAF70E94750BEFCF7F
:1008A000EBE5EC0FE33040F4F0E0EB5BFE4F8081D2
:1008B00090E00E942D1BE5CFE8E5EC0FE93150F404
:1008C000F0E0EE0FFF1FED5EFE4F808191810E94F0
:1008D000521BD7CF83E38C0F833198F661E08C2FC6
:1008E0000E941C04CECF882381F19CEF980F913A8F
:1008F00028F40E94520B0E94B30B089590E2980FC7
:10090000983050F4877091E001C0990F8A95EAF70A
:10091000892F0E947B0BEFCF9BE5980F933028F433
:1009200090E080E00E942D1B089598E5980F993182
:1009300028F490E080E00E94521B089593E3980F02
:10094000933118F460E00E941C0408951F93CF9324
:10095000DF93182FEB010E942604209739F4812F92
:100960000E947304DF91CF911F9108958FE99FE05A
:100970000197F1F700C000002197EFCF70E060E031
:10098000893311F460E570E00E94A604089588237D
:1009900021F00E94750B0E94B30B0895882321F06B
:1009A0000E947B0B0E94B30B0895B0E0A0E0EBED3A
:1009B000F4E00C949A246C01D62FC72FFC0112810D
:1009C000F580F2949FE0F9220E946B0BE82E8823B9
:1009D000B9F0E12E1123A1F08C2F807F803421F01B
:1009E00080E28D0F8830D0F08091A10282FF16C086
:1009F00082E00E94160C0E946B0B91E0E82EE92623
:100A0000BC2EB2948FE0B822FBE0FB1508F468C05E
:100A1000EB2DF0E0EA5CFA4D0C948424E12CF0CF4D
:100A20000C2F0F70C07F11F00295007F112399F0F9
:100A3000002359F080E28D0F883010F0D11107C0EB
:100A4000802F0E94750B0E94B30B8D2F41C0802F09
:100A50000E94850BF8CF8D2F0E947304002309F4A8
:100A60003FC080E28D0F883010F0D11104C0802F7C
:100A70000E947B0B03C0802F0E948B0B0E94B30B44
:100A80002FC00C2F0F70C07FC03211F00295007F75
:100A9000DD2381F0D13009F468C0112309F472C05C
:100AA000FF2009F468C0F601858180FFCECF8F70EA
:100AB000858361C08091A10282FD33C0112359F06A
:100AC000002329F0802F0E94750B0E94B30B80E059
:100AD0000E94260405C080E00E9473040111C7CF64
:100AE000EB2DE850FF0B349720F40E94F81A0E9477
:100AF000B603EE2089F00E94670B80FD0DC0F60161
:100B000012820E94610B0E949507C6010E94DA06BC
:100B10000E94610B0E94A107CDB7DEB7E9E00C94FB
:100B2000B624112389F0F11006C00E94950B802B8A
:100B30000E94C704D5CF21E0F212F7CF0E94950B97
:100B4000802B0E949C0BCCCFF11006C00E94A90BF9
:100B5000802F0E94CE04C4CF31E0F31609F2802F1B
:100B60000E94CE040E94A90BBBCF112331F085E077
:100B70008F1508F4B5CF802FDBCF94E09F1508F4D4
:100B8000AFCFE6CFFF2021F3D93349F4FFEF27EEB3
:100B900033E0F15020403040E1F700C000008D2FDD
:100BA0000E9473049DCF8C2F86958695837069F083
:100BB000813009F095CF8D2F9C2F9370111102C0B9
:100BC00080E090E00E94521B8BCF8D2F9C2F937062
:100BD000111102C080E090E00E942D1B81CF612F97
:100BE0008D2F0E941C047CCF8C2F837079F51111FE
:100BF00077CF4D2F429546954770440F440F8D2F68
:100C00008F70042E01C0880F0A94EAF72D2F2071EF
:100C1000D4FF07C02FE030E001C0220F4A95EAF769
:100C20002095C695C695C370822BC23049F058F402
:100C3000C13019F00E94740753CF0E946E0750CF45
:100C40000E947A074DCF0E946B074ACF86951123E9
:100C500011F08C2F8170882309F442CF4D2F4295DB
:100C600046954770440F440F8D2F8F70042E01C09E
:100C7000880F0A94EAF72D2F2071D4FF07C02FE0C8
:100C800030E001C0220F4A95EAF72095C695C69537
:100C9000C370822BC23049F058F4C13019F00E9461
:100CA000C0071ECF0E94BA071BCF0E94C60718CFED
:100CB0000E94830715CFCF70112329F08C2F0E943B
:100CC00095078D2F35CF8D2F0E94CE048C2F0E943B
:100CD000A10706CFD23F51F160F4D03FB9F0D13F28
:100CE00081F0112309F449C0F110AFCE8C2F8F7120
:100CF00021C0D33F11F1D43FA1F78091A10282FD21
:100D000026C08C2F8F71112311F314C0112349F0C9
:100D100084E08F1508F4E4CE8C2F8F710E94AE070B
:100D2000DFCE95E09F1508F4DBCEF6CF8C2F8F71C8
:100D30001111CDCF0E949507D3CE112329F08C2F0E
:100D40008F710E948C07CCCE0E948807C9CE1123D8
:100D500049F0CF718C2F0E94950763E08C2F0E9481
:100D6000F80BBECE81E00E94160CE1E0EF1508F012
:100D7000B7CE82E00E94160CB3CEF11005CF8C2FB7
:100D80008F71A5CF0F931F93CF93DF93EC016881F1
:100D900079818A810E948C088C010E94CC070E9474
:100DA0006A07B801CE010E94D504DF91CF911F914F
:100DB0000F910895CF93DF93EC018B819C81892B58
:100DC00029F08881998189238F3F51F4DF91CF9158
:100DD0000895CE010E94C206CE010E94E702F6CF1E
:100DE000CE010E9439038111F4CF0E946B0B88233E
:100DF00069F38A81882351F38091A10282FFE6CFB3
:100E000082E00E94160CE2CF90E080E00E942D1B51
:100E100090E080E00E94521B0E94920B0E94B30B54
:100E20000E94DA120E94BE1208950E945A0B0E947C
:100E3000040708950E94820B0E9415070895929559
:100E40009F70963091F058F4925F9F70923058F4F2
:100E5000803F19F030F4883E30F481E008959A5FC5
:100E6000F4CF843FD1F380E00895883EB0F3813F12
:100E7000D1F7F3CFFC0183819481892B29F0808104
:100E8000918189238F3F11F480E0089580819181C1
:100E90000E9481080E941F070895A5E0B0E0E3E5E5
:100EA000F7E00C94A1242596E2E00C94BD24A6E082
:100EB000B0E0EDE5F7E00C94A1242696E2E00C9476
:100EC000BD2408950E94610708950E9462078093DF
:100ED000CA01089508950E94650708959091CA0176
:100EE000892B0E94650708959091CA0189230E9469
:100EF000650708959091CA0189270E9465070895A2
:100F00000E94680208950E9480078093C901089595
:100F100080E00E948307089591E001C0990F8A95AF
:100F2000EAF7892F0E948307089521E030E001C08D
:100F3000220F8A95EAF78091C901822B0E948307CC
:100F4000089521E030E001C0220F8A95EAF720954C
:100F50008091C90182230E948307089521E030E037
:100F600001C0220F8A95EAF78091C90182270E9469
:100F7000830708959091C901892B0E9483070895E2
:100F80009091C90189230E94830708959091C90116
:100F900089270E94830708950895262F277091E0DE
:100FA00001C0990F2A95EAF723E0769567952A956F
:100FB000E1F7FB01EE0FFF1FE60FF71FE40FF51F30
:100FC00050E040E0682F70E08191DF0111979B01B4
:100FD000042E02C0369527950A94E2F721702195D8
:100FE0002827292328272C934F5F5F4F4330510533
:100FF00059F70895A82FA77023E0969587952A950D
:10100000E1F7FC01EE0FFF1FE80FF91FE60FF71FD6
:1010100050E040E080E0219130E00A2E02C0369599
:1010200027950A94E2F721703327042E01C0220F7E
:101030000A94EAF7822B4F5F5F4F4330510559F70F
:101040000895282F862F943070F42C3058F4622F96
:1010500070E02CE0929F600D711D112447EB51E070
:101060000E94CD0708959C5F9230E0F7622F70E0F8
:1010700044EB51E0F5CF292F943068F48C3090F494
:1010800090E067EB71E03CE0239F800D911D1124FF
:101090000E94FA0708952C5F223020F464EB71E07F
:1010A00090E0F6CF80E00895CF92DF92FF920F9309
:1010B0001F93CF93DF936C010091C9018091CA0106
:1010C000082BC7E0D0E010E0FC2EC8010C2E02C0B7
:1010D000959587950A94E2F780FD0CC02197A0F7BB
:1010E000F12C8F2DDF91CF911F910F91FF90DF9009
:1010F000CF900895B6018C2F0E94E90E019771F3ED
:10110000F0CFCF93DF93EC010E945408BE010E9400
:10111000E90EDF91CF9108951F93CF93DF93EB01F9
:101120009091B301992339F0CB010E948108DF919E
:10113000CF911F910895882369F0CB010E94540834
:10114000182F682FCE010E942108BE01812F0E9416
:10115000E90EEDCFCB010E943B08182FF6CF1F936D
:10116000CF93DF93C091CB0116E08091CC018C131B
:1011700004C0DF91CF911F910895D0E01C9FF00132
:101180001D9FF00D1124E353FE4F40815181628178
:101190007381848195810E9457072196C770E5CF9E
:1011A0004091FD015091FE016091FF01709100029C
:1011B00080910102909102020E94570708951F93A7
:1011C000CF93DF9380910202807F09F049C0809124
:1011D000FF01882309F444C08091CB01C091CC0168
:1011E0006091FD017091FE01A0910002B091010299
:1011F000D62FD72316E0C81799F190E0109711F079
:10120000DF3F19F401968770F6CF189F9001199F60
:10121000300D1124F901E353FE4F41814713F2CF02
:1012200040814613EFCF42814111ECCF438154817D
:101230004A1B5B0B483C510528F7809102028F70D6
:10124000806180930202F901EE52FE4F80818F701F
:10125000806180838DEF91E00E94DA060E94AF08E2
:10126000DF91CF911F910895A1E1B0E0EAE3F9E0A9
:101270000C9499248C0185E0F801DE011D96019003
:101280000D928A95E1F7F801E2808DEFC82E81E09A
:10129000D82E60910002709101026115710509F468
:1012A0004EC19091FD012091FE01892F82238F3F35
:1012B00009F445C140815181A380B480F090FF01C1
:1012C000F501E61BF70BFF2009F4EAC0809102024A
:1012D000382F307FE83CF10508F0A3C031116DC014
:1012E000FE2C251316C0941314C0E11012C08F7089
:1012F0008061809302020E94D008C6010E94DA0633
:1013000080910202F80185838F2D6196EAE00C94AA
:10131000B524A114B10429F0842F85238F3F09F04F
:1013200027C180E0F82FF170DF2E80FF3CC0809154
:10133000CB012091CC0136E0821315C04D875E872A
:101340008D859E850E948108292F22952F7022303D
:10135000F0F0243018F59F70F1F0F8019581907F3E
:10136000D1F4D12C1EC090E0389FF001399FF00DD0
:101370001124E353FE4F6181651306C0608164133D
:1013800003C06281E6120FC001968770D5CF9F70AF
:1013900011F0882331F3805E883018F3C8010E9471
:1013A000DA06FD2CB1CFEE2009F4AECF8091020217
:1013B000816080930202F12CA7CF251306C09413FD
:1013C00004C0F801EE2009F487C0C8010E943A0762
:1013D000882319F1EE2009F180910202803270F029
:1013E0002091FD013091FE0138872F831986BB863D
:1013F000AA868C87CE0107960E94DA0686E0F8015D
:10140000ADEFB1E001900D928A95E1F70E94DF08FF
:101410000E94D008FF24F39477CFC8010E94DA0617
:10142000F9CF311113C07A2DB98AA88A6E2D898916
:101430000E944D078DEF91E00E94DA0686E0F601EA
:1014400011928A95E9F70E94D008B5CF25130FC0F5
:1014500094130DC0E1100BC0F8018583C8010E94F0
:10146000DA0686E0F60111928A95E9F74DCFC801B8
:101470000E943A07882389F2EE2079F280910202D5
:10148000803208F4BBCF2091FD013091FE013A83F8
:1014900029831B82BD82AC828E83CE010196ACCFA4
:1014A000E83CF10508F03EC0FE2CEE2009F4B5CF73
:1014B00025132AC0941328C08091020280FD1BC00E
:1014C000982F907FC1F0F8018583903F31F0982FDD
:1014D000907F905F8F70892B8583C8010E94DA0608
:1014E00086E0F801ADEFB1E001900D928A95E1F749
:1014F0000E94D00809CF86E0F801ADEFB1E001907D
:101500000D928A95E1F700CFC8010E943A07811138
:1015100075CF80910202816080930202C8010E940F
:10152000DA06F2CE7A2DB98AA88A6E2D89890E94B0
:101530004D0786E0F60111928A95E9F7D9CFEE20A2
:1015400009F46BCFC8010E943A07F82E882309F4EA
:1015500064CF86E0F801ADEFB1E001900D928A957D
:10156000E1F78DEF91E00E9416040E94DF08C0CFE2
:1015700081E08E25D7CEACE0B0E0E1ECFAE00C944F
:10158000A0244F83588769877A878B879C87CE01F1
:1015900007960E943409882369F08A859B85892BE8
:1015A00039F04F815885842F85238F3F09F06BC018
:1015B00016E05FC086E0FE013796DE0111960190CD
:1015C0000D928A95E1F78A859B85892B89F38F8116
:1015D000988589238F3F61F32091CC0130E0C901C8
:1015E0000196877099274091CB014817190671F42D
:1015F0000E941A071092CC011092CB0186E0EDEF09
:10160000F1E0DF011D928A95E9F7D2CF96E0929F33
:10161000D001939FB00D1124A353BE4FFE0131960C
:1016200001900D929A95E1F78093CC010E94AF084A
:10163000BFCF819FC001112483539E4F0E94340964
:101640008823E9F0E091CB011E9FF0011124E353C0
:10165000FE4F4081518162817381848195810E9416
:1016600057078091CB0190E001968770992780936E
:10167000CB018091CB019091CC018913DACF2C96CC
:10168000E3E00C94BC2469857A858B859C850E9457
:1016900057078ECF682F80910001909101010E9421
:1016A0000B1C0895682F80910001909101010E9408
:1016B000191C089580910001909101010E94271C3E
:1016C000089580912302859585958595089580914B
:1016D00023028770089590912302977081E009F4A6
:1016E00080E0089580914602089590914602892BEA
:1016F0008093460208958095909146029823909396
:101700004602089510924602089590914502892B51
:101710008093450208958095909145029823909377
:10172000450208951092450208958091240208957B
:1017300008950E94980B08959091A10292FF08C00D
:1017400090912402981721F0809324020E94990B13
:10175000089580912402882329F01092240280E0C9
:101760000E94990B0895CF93DF93E0910001F091CF
:101770000101809146028083E0910001F091010116
:10178000808190914502892B808390912402992336
:1017900081F0E0910001F09101018081892B80832B
:1017A00080910001909101010E94771B81110E949C
:1017B000A90BC0910001D091010140E250E063E02B
:1017C00072E0CE010E94DC24892B59F080E2FE01F8
:1017D000A3E0B2E001900D928A95E1F7CE010E945C
:1017E000051BDF91CF91089508950E94F40B089591
:1017F0009091A10292FF11C098E0899F900111245D
:10180000622B609323020E949507809123028595A5
:10181000859585950E94F50B08950E94950708957A
:101820001092230280E00E94F50B0895909123020C
:101830008095892380932302282F277091F4282FE5
:10184000082E000C330B9217130659F09091A10249
:1018500092FF07C08595859585950E94A1070E94F6
:10186000100C08959091A10292FB222720F92817CD
:1018700069F080FB92F99093A1028091A00290916F
:10188000A1020E947B0C82E00E94160C08958091B8
:10189000A10282FB882780F991E089270E94320CFF
:1018A000089581E00E94320C089580E00E94320C7D
:1018B00008956FEF7FEF90E080E00E941E2508956D
:1018C00090E080E00E94FA24873E9E4F19F40E9427
:1018D000F813089580E0089582E090E00E94F224D9
:1018E000089583E090E00E94F224089584E090E05F
:1018F0000E94FA240895BC0184E090E00E941E2515
:101900000895AB01BC018FE090E00E94122508957C
:10191000AB01BC0183E190E00E941225089560E0D4
:1019200070E0CB010E94880C089560E070E0CB016C
:101930000E94810C0E948F0C089567EE7EEF90E06C
:1019400080E00E941E2560E082E090E00E94002579
:1019500060E083E090E00E9400251092CA0160E000
:1019600074E184E090E00E941E2560E086E090E053
:101970000E9400256FEF87E090E00E94002540E084
:1019800050E0BA0188E090E00E94122560E08DE00E
:1019900090E00E94002540E050E0BA0188E190E02C
:1019A0000E94122560E087E190E00E94002540E05F
:1019B00050E0BA018CE190E00E94122570E060E0F6
:1019C00080E290E00E941E2540E050E0BA0188E1EC
:1019D00090E00E94122580E00E9411140E944014A1
:1019E0000E94950C08950E949D0C0895682F8EE02A
:1019F00090E00E94002508950E94F51C6093590212
:101A000070935A0280935B0290935C02609355023C
:101A100070935602809357029093580208950E9443
:101A2000F51C6093590270935A0280935B02909365
:101A30005C02609351027093520280935302909320
:101A400054020895089508950E94230D089508955D
:101A50000E94270D089583ED9FE00E94EE1A0E94D8
:101A6000220D0E94240D089581E008950E94340DF6
:101A70000895089508950E94390D0E943A0D089521
:101A80000E94EF0F0E94B50308950E94E01C0E947F
:101A900050140E9422170E94C8100E94400D0E94FC
:101AA000280D0895AAE0B0E0E8E5FDE00C94962446
:101AB0000E94DE1029E4822E22E0922E640110E0C2
:101AC000F601E190F1906F01812F0E9412101F5FCB
:101AD000143009F449C0E816F90691F380915D02CB
:101AE00081FD0E941B100E94360D782E10E0812F80
:101AF0000E9412107C01F401A190B1904F018A154F
:101B00009B0561F1A826BF2400E0CC24C394D12C0E
:101B1000C5018C219D21892BC1F07720B1F00E8366
:101B20001F8321E0C7018C219D21892B09F420E02E
:101B300028870E94E91C8160782F9A8789874E81C7
:101B40005F8168858A850E94E1030F5FCC0CDD1CF4
:101B50000C30F1F6F4013297F182E0821F5F14300D
:101B600031F60E94FC0C22C0E816F90609F0B6CF47
:101B70000E94E91C8C01809147029091480208174D
:101B80001907A1F08FEF89838A831B820E94E91CC9
:101B90008160782F9D838C8349815A816B818D81EF
:101BA0000E94E10310934802009347020E944117EC
:101BB00081110E940F0D0E94FC120E94C8032A96F8
:101BC000EDE00C94B224CF93DF930E94EE0EEC0173
:101BD000811520E59207D0F5811530E4930708F0D0
:101BE00086C0803E910518F58D3C910508F07DC0BA
:101BF000883A910570F4853A910508F06EC08130FD
:101C0000910501F10097F1F00497E0F4D0E0C0E015
:101C100019C0813C9105D0F7C85AD0E0CC0FDD1F28
:101C2000C85BDE4F0990D881C02DD4640BC08115EC
:101C3000904208F0A8C0C11581E0D80718F4C83E4A
:101C4000D10520F7CE01DF91CF910895803622E5AE
:101C5000920710F5803432E5930708F052C08032C5
:101C6000924508F047C0C11582E5D80708F47DC049
:101C70002C2F2695269540E2249F900111248C2F2D
:101C80008370C1E0D0E002C0CC0FDD1F8A95E2F77F
:101C9000C22BD32BDD68D6CF803A22E5920760F4C1
:101CA000803832E5930708F441C0CF71D0E0DC2FD3
:101CB000CC27C46FD06AC6CF803C42E5940708F4B5
:101CC00049C0C03E82E5D80708F0A0CFDC2FCC2762
:101CD000CC27DF71C06FD06AB5CFC55AD0E0C658E7
:101CE000DE4FC881D0E0D064ADCFD065ABCFDF7020
:101CF000D06AA8CFCF71D0E0DC2FCC27C16FD06ADB
:101D0000A1CF282F26952695277080E2289F900145
:101D100011248C2F8370C1E0D0E002C0CC0FDD1FF6
:101D20008A95E2F7C22BD32BDC688CCF282F26951F
:101D30002695277040E2249F900111248370C1E012
:101D4000D0E002C0CC0FDD1F8A95E2F7C22BD32B67
:101D5000DA6878CF8F710E94900FC82FD0E0DC2F07
:101D6000CC27CC27DF71D0626DCF8C2F8F710E9472
:101D7000900F35E0D695C7953A95E1F7CF709C2F37
:101D8000EC01D0695FCF8D2F8F710E94900F90E092
:101D9000982F882788279F719C012C2BE901E3CF7E
:101DA000462F672F743028F44C3080F40E942A1993
:101DB00008957D3F39F4411109C041E060E00E947F
:101DC000361908957C3F11F44423C1F390E080E07C
:101DD00008950E94D00E0E94E30D08958238910567
:101DE000B9F1B0F48133910509F47DC048F489322A
:101DF000910509F46DC08A32910509F47BC00895FC
:101E00008533910509F45FC08933910509F108957F
:101E1000833E9105D9F138F4803E910529F1823E47
:101E2000910579F10895863E9105D9F1873E910596
:101E300009F43EC0843E910541F52091A10221FFA5
:101E400024C08091A00284FD19C087EE90E008951F
:101E50002091A002237009F05AC02091A10223FF13
:101E600014C089E290E008952091A00220FD38C0BE
:101E70003091A10230FF09C024FF43C090E080E010
:101E800008952091A00222FDF7CF08952091A0028D
:101E900022FD3AC03091A10230FD39C024FFF5CFB8
:101EA000EDCF2091A00223FFF0CF24FDE7CFCDCFCF
:101EB0002091A00223FD2EC03091A10231FFEECF70
:101EC00084EE90E008952091A00225FFDECFC9CFD7
:101ED0002091A00225FD21C02091A10223FFD5CF92
:101EE00089E390E0D2CF2091A00226FFCECF8AE2F4
:101EF00090E008952091A00226FFC7CF81E390E0F3
:101F0000089583EE90E0089582EE90E0089580EECB
:101F100090E0089586EE90E0089585E390E00895BE
:101F20009091A00292FF06C0282F28712830F9F462
:101F3000877F846093FF06C0282F28712831F1F431
:101F4000877E84612091A10220FF06C0382F38715E
:101F50003830D9F4877F816021FF06C0282F28718F
:101F60002831D1F4877E816194FD877E0895282FE2
:101F700024712430F9F68B7F8860DCCF282F247100
:101F8000243101F78B7E8861DDCF382F31713130FC
:101F900019F78E7F8860E0CF282F2171213121F73A
:101FA0008E7E8861E1CF80E008950E94590C0895EB
:101FB0000E94DE108FE39CE90197F1F700C000005A
:101FC0000E94DE1080E00E94121080FF04C00E9478
:101FD000D50F0E94341D08950E94D80F08950E94C5
:101FE000600C811102C00E94F30C0E946C0C809363
:101FF0005D020E94760C9093A1028093A0020E9441
:10200000EC0F0E94710C0E946B078091C9010E9425
:102010008007089508950E940A10089508950E9467
:102020000E100895E82FF0E0EE0FFF1FE655FD4F6C
:10203000808191810895089580EA8A95F1F7089545
:1020400000C008950E941C100895F894E82FE295AE
:10205000EF70F0E031A1282F2F7081E090E001C0F7
:10206000880F2A95EAF7982F9095932391A392A130
:10207000892B82A378940895CF93DF9383E90E94FC
:10208000251082E90E94251081E90E94251080E92F
:102090000E942510CDE7D1E089918F3F11F00E9479
:1020A000251081E0C938D807B9F7DF91CF9108959D
:1020B000AF92BF92DF92EF92FF920F931F93CF9355
:1020C000DF938C01D62EC62FD0E0CE0187579E4FCE
:1020D0007C01FC0120812F3F09F44DC0F894E22FD0
:1020E000E295EF70F0E031A12F7081E090E001C047
:1020F000880F2A95EAF7932F982B91A392A18095A8
:10210000892382A378940E942010EDE7F1E049E84A
:1021100051E021E030E0B12CA12C61916F3FA9F199
:10212000A62FA295AF70B0E090968C9190E06F7062
:1021300002C0959587956A95E2F780FD26C0C90192
:10214000A82AB92A220F331F4E175F0731F7F7016C
:1021500080818F3F11F00E94251061E0A114B1042D
:1021600009F460E08D2D0E942210CC0FDD1FC00FFE
:10217000D11FB982A882DF91CF911F910F91FF905B
:10218000EF90DF90BF90AF90089590E080E0D8CFBF
:102190000E943C1088E0EAEAF2E0DF01982F1D92ED
:1021A0009A95E9F7E2EAF2E0DF011D928A95E9F7F4
:1021B00084E00E9419110E941A030895A8E0B0E07B
:1021C000E4EEF0E10C949E248E010F5F1F4F88E037
:1021D000F80111928A95E9F7F12C6F2DC8010E9440
:1021E0005810F394F4E0FF12F8CF48E050E0B80143
:1021F00082EA92E00E94DC2421E0009709F420E0CA
:10220000892B41F088E0F801A2EAB2E001900D923A
:102210008A95E1F744E06AEA72E082EA92E00E947D
:102220001A11182F0E941D03812F2896E5E00C94A7
:10223000BA240895CF92DF92EF92FF921F93CF932B
:10224000DF936C017B01C42F222349F081E080934E
:1022500060020E94E91C90935F0280935E021091DD
:10226000600211110AC010E0812FDF91CF911F9100
:10227000FF90EF90DF90CF90089580915E02909153
:102280005F020E94011D059770F3D0E0CC0FDD1FA7
:10229000AE01B601C7010E94DC24892B41F0AE01DA
:1022A000B601C7010E94E92410926002DDCF10E060
:1022B000FBCF0E94CF1E0E94450D0E94DC1E089598
:1022C0000E94E11E0E94520D0E94FB1E08950E9472
:1022D000821C0E94B51E0E942B0D0E9459110E9463
:1022E00060110E943B0DFBCF8091670280FF0DC003
:1022F0006091070170E0660F771F6038710570F517
:102300006115710569F1862F089581FF07C06091FD
:10231000070184E0689FB0011124EFCF60910701AD
:1023200082FD0AC0809166028823A9F020910601EF
:1023300060910701821710F088E0ECCF869FC00102
:10234000112433E0880F991F3A95E1F7622F70E06E
:102350000E947024D2CF68E070E0D5CF8FE7089557
:1023600081E008958091670280FF0CC060910301B5
:1023700070E075956795759567956115710549F1DB
:10238000862F089581FF06C06091030170E0759566
:102390006795F3CF6091030182FD0BC090916502B8
:1023A0009923A1F06091020180910301961738F002
:1023B000682F70E06038710500F38FE70895899FFA
:1023C000C001112470E00E947024F4CF61E070E03D
:1023D000D7CF81E008958D3C31F40E94741181952E
:1023E00080936B0208958E3C19F40E947411F8CF0B
:1023F0008F3C31F40E947411819580936A02089594
:10240000803D19F40E947411F8CF893D29F40E948F
:10241000B21180936C0208958A3D21F40E94B2119A
:102420008195F7CF8B3D31F40E94B2118195809355
:102430006D0208958C3D19F40E94B211F8CF9FE20D
:10244000980F983070F4815D990B21E030E001C065
:10245000220F8A95EAF780916902822B80936902A4
:1024600008958D3D31F48091670281608093670209
:1024700008958E3D21F4809167028260F7CF8F3DF1
:10248000B9F7809167028460F1CF40916A028D3C78
:1024900059F480916B0287FF0DC010926B024111BD
:1024A0000BC01092660208C08E3C81F480916B02D2
:1024B00018169CF3442381F080916C0290916D0278
:1024C000892B09F05AC01092650208958F3C49F497
:1024D00047FFF0CF10926A0280916B028111ECCF1E
:1024E000E0CF803D19F41416ACF3E4CF90916C0268
:1024F000893D29F41916F4F610926C02DBCF8A3D5F
:1025000019F497FFD7CFF8CF90916D028B3D29F446
:1025100097FFD0CF10926D02CDCF8C3D19F41916D4
:10252000CCF3C8CF9FE2980F983090F4815D990B5F
:1025300021E030E0B90102C0660F771F8A95E2F70B
:10254000CB01809590916902892380936902B2CF73
:102550008D3D31F4809167028E7F80936702AACF10
:102560008E3D21F4809167028D7FF7CF8F3D09F07A
:10257000A1CF809167028B7FF0CF08950E94E91C64
:102580009C0190916A0280916B02982B21F030930C
:1025900064022093630290916C0280916D02982BEB
:1025A00021F0309362022093610288E692E00E945B
:1025B0001F1B089586E0E8E6F2E0DF011D928A9590
:1025C000E9F7109266021092650210926702089570
:1025D000FC01828181110EC0838181110BC0848135
:1025E000811108C091E08581811101C090E0892F9F
:1025F0008170089581E0FCCFA6E0B0E0E2E0F3E175
:102600000C94A02486E0E8E6F2E0DE011196019049
:102610000D928A95E1F710926A0210926B02109265
:102620006C0210926D028B819C81892B89F08091C4
:102630006302909164020E94011DAC0190916602B8
:102640009923C9F1809108018417150608F440C048
:102650008D819E81892B91F080916102909162021F
:102660000E94011DAC0190916502992309F471C08B
:10267000809104018417150608F479C0BE016F5FCC
:102680007F4F88E692E00E94391C811105C088E6E0
:1026900092E00E94E81281110E94BE1286E0FE01C3
:1026A0003196A8E6B2E001900D928A95E1F7269660
:1026B000E3E00C94BC24209109018AE0289F90015A
:1026C00011242417350720F69F5F9093660202C0FD
:1026D0009F3FD1F71B81112359F00E9474119FEF86
:1026E00011160CF491E0899F802D112480936A02C9
:1026F0001C81112359F00E9474119FEF11160CF4E4
:1027000091E0899F802D112480936B0230916A02A1
:10271000332309F49DCF20916B02222309F498CF33
:1027200045EB3403C0011124992359F090936A02B8
:1027300045EB240390011124332339F030936B02CD
:1027400087CF81E080936A02F3CF81E080936B02B0
:102750007FCF209105018AE0289F90011124241742
:10276000350708F08BCF9F5F9093650202C09F3FB3
:10277000D1F71D81112359F00E94B2119FEF11165C
:102780000CF491E0899F802D112480936C021E81AE
:10279000112359F00E94B2119FEF11160CF491E031
:1027A000899F802D112480936D0230916C02332318
:1027B00009F464CF20916D02222309F45FCF45EB29
:1027C0003403C0011124992359F090936C0245EB16
:1027D000240390011124332339F030936D024ECF3E
:1027E00081E080936C02F3CF81E080936D0246CF4D
:1027F00082E290E00E94F224833289F483E290E046
:102800000E94F224863059F484E290E00E94F2247F
:1028100091E0833109F090E0892F8170089580E084
:10282000FCCFCF93C82F6FEF811163E282E290E07B
:102830000E9400256FEFC11166E083E290E00E94E4
:1028400000256FEFC11163E184E290E00E94002552
:10285000CF910895089585E290E00E94F224682FB8
:1028600070E090E080E008950895CF93C62F0E9415
:1028700034146C2F85E290E00E940025CF910895DA
:1028800080E00E94111460E070E0CB010E943514DA
:102890000E948C180E948F1981E00E9411140895E3
:1028A0000E942A140E942B140E9434140E94F813D0
:1028B000811102C00E94401408950895CF93FB0136
:1028C000C281CC2309F19C012250374720313105C8
:1028D00020F582500E949F19C0E08C2FCF9108955F
:1028E00081E00E94950743E062E081E00E941003CE
:1028F000F3CF81E00E94A10743E062E081E00E9403
:102900001003EBCF82E0F6CF8115F7E79F0789F33D
:1029100081309747B9F3C1E0E0CF8115E7E79E0723
:10292000F9F281309747C9F682E0DBCF2FEFFC0147
:10293000208308950E949614089580E00895EF92F0
:10294000FF920F931F93CF93DF93EC01062F0E940A
:102950009D14811110C0E881E150E531B8F4F0E038
:10296000EE5BFA4D0C94842419828BE08A83602FED
:10297000CE010E94A91DCDB7DEB7E6E00C94B924C4
:1029800089818230C1F028F4813061F08FEF888333
:10299000EECF833099F08430C9F71A821B821C82F3
:1029A0001D82E5CF0E94F51C0E948A246A837B83E6
:1029B0008C839D83DCCF0E942B14F6CF7E0110E028
:1029C000812F0E941210F701928383831F5FF2E030
:1029D000EF0EF11C1430A1F7CACF8981823031F09B
:1029E0008530A1F68A810E945D14C1CF6A817B8106
:1029F0008C819D810E948A240E943514B8CF4B811E
:102A00006A8189810E94F0179827892798279D83DA
:102A10008C83ADCF2C813D813227232732274B81F8
:102A20006A8189810E941218A2CF0E948C189FCFC0
:102A3000602FCE010E949A149ACF0E944019898378
:102A400096CF0E9442199827892798279A838983CD
:102A50008ECF6B8170E089819A81AE014C5F5F4FB0
:102A60009827892798270E94451981CF6B8170E0AC
:102A700089819A81AE014C5F5F4F982789279827FB
:102A80000E946A1974CF0E948F1971CF0E94DE17BD
:102A9000D6CF6B8170E089819A81AE014C5F5F4F28
:102AA0009827892798270E94E21861CF6B8170E0F0
:102AB00089819A81AE014C5F5F4F982789279827BB
:102AC0000E94061954CF41E08B81811101C040E082
:102AD0006A8189810E942E1897CF2C813D813227EF
:102AE0002327322741E08B81811101C040E06A81B8
:102AF00089810E9461183BCFCF93DF93EC01FB01EA
:102B00008281882309F4D2C09E01305723323105D7
:102B100008F0B2C00E94760C9093A1028093A002AC
:102B2000FE01E150F047E232F10520F4E95AFA4D96
:102B30000C9484248091A00281608093A00293C0B1
:102B40008091A10288608093A1028DC08091A00233
:102B50008260F3CF8091A0028460EFCF8091A002C9
:102B60008860EBCF8091A1028160EDCF8091A102BE
:102B70008260E9CF8091A0028061DFCF8091A002C6
:102B80008062DBCF8091A0028064D7CF0E941A07B9
:102B90008091A0028068D1CF8091A0028C60CDCFBF
:102BA0008091A1028360CFCF8091A0028E7FC5CF9C
:102BB0008091A102877FC7CF8091A0028D7FBDCF7A
:102BC0008091A0028B7FB9CF8091A002877FB5CF83
:102BD0008091A1028E7FB7CF8091A1028D7FB3CF6C
:102BE0008091A0028F7EA9CF8091A0028F7DA5CF7A
:102BF0008091A0028F7BA1CF0E941A078091A00232
:102C00008F779BCF8091A002837F97CF8091A10285
:102C10008C7F99CF8091A00282FB992790F921E0C7
:102C2000922790FB82F990FB83F987CF8091A102D4
:102C3000982F909591708E7F892B90FB81F983CF8F
:102C40009091A002892F8F7B96FF806476CF0E949F
:102C50001A079091A002892F97FB87F980586DCFB2
:102C600081E00E94F60C8091A0029091A1020E9446
:102C70007B0C0E941A0780E0DF91CF91089580E0DD
:102C8000F0CF9091A002892F8F7E94FF806155CF65
:102C90009091A002892F8E7F90FF81604ECF9091FE
:102CA000A102892F877F93FF88604DCF81E0E4CF19
:102CB000B0E0A0E0EEE5F6E10C949C24E82FF0E013
:102CC000E45CFD4FD490282F26952695269530E07C
:102CD000F901E452FD4F0491877010E0082E02C004
:102CE000159507950A94E2F701701127F901E4534D
:102CF000FD4FE490F12C082E02C0F594E7940A945D
:102D0000E2F791E0E922FF24F901E454FD4FC49178
:102D1000D0E002C0D595C7958A95E2F7C170DD274E
:102D20000115110519F081EE0E942604E114F10449
:102D300019F086EE0E9426048D2D0E94BE04E11437
:102D4000F10419F086EE0E9473040115110519F0C3
:102D500081EE0E947304CD2B19F08CE20E94BE0418
:102D6000CDB7DEB7E7E00C94B824EF92FF920F9353
:102D70001F93CF93DF93EC01162F0AE088818823FD
:102D800009F454C0813009F04EC08981813099F432
:102D90007E0122E0E20EF11C8A810E94BE04E7015E
:102DA0002196812F815050F3EFE9FFE03197F1F741
:102DB00000C00000F7CF823041F47E0182E0E80ECF
:102DC000F11C8A810E942604EACF833041F47E01FF
:102DD000E2E0EE0EF11C8A810E947304E0CF8430A1
:102DE00011F02196DDCF2A81229690E080E0AE019D
:102DF0004F5F5F4F2053330B2A30310548F0019766
:102E000078F2EFE9FFE03197F1F700C00000F7CF6B
:102E1000089FB001099F700D1124C901860F971FEB
:102E20002981EA01E4CF0E945816BACFCDB7DEB7A8
:102E3000E6E00C94B9248FE891E00197F1F700C027
:102E40000000089581E080936F0226982E9A2298C0
:102E50002A9A0E941B1720916F0241E752E0FA0163
:102E60008E2F841B821708F0089583B186FB882774
:102E700080F91A9904C090E0892B8193F1CF92E0F8
:102E8000FBCFA4E1B0E0E7E4F7E10C94962410E076
:102E900000E084E0C82ED12C9DEF992E88248394E5
:102EA0002CEF722E80916F02181728F0802F6496F5
:102EB000EDE00C94B224E12EF12CE3B1E6FBEE2719
:102EC000E0F91A9979C080E08E2BD701AF58BD4F39
:102ED000EC919E2F9370981709F46CC0EE0FEE0FD3
:102EE000E82BEC93EF70F0E0E357FE4FC7018059F9
:102EF0009D4F5C018081F5019081890F808320E0E6
:102F000084302CF1F701E259FD4F80818F5F80837F
:102F10000E94E91C1B877C868D868160782F9F87A5
:102F20008E87412F5CEF61E08F850E94E1030E9454
:102F3000E91C188B798A1A8A8160782F9C8B8B8B7D
:102F4000412F5CEF60E08C890E94E10321E0F501F4
:102F500080818D3F2CF5F701E259FD4F8081815032
:102F600080830E94E91C19839A828B828160782F6A
:102F70009D838C83412F5DEF61E08D810E94E10391
:102F80000E94E91C1E839F8218868160782F9A8791
:102F90008987412F5DEF60E08A850E94E10321E08F
:102FA000F5018081082E000C990BB6010E94702457
:102FB0008083022B1F5F76CF82E086CF84E0089566
:102FC00050E0440F551F98E1699F400D511D112499
:102FD00090E6899F400D511D1124CA0186960895DF
:102FE0000F931F93CF93DF938430C8F46430B8F409
:102FF0004C30A8F40E94E0178C010E94F224C82FE4
:10300000D0E0DC2FCC27C80101960E94F2249E015B
:10301000282BC901DF91CF911F910F91089590E066
:1030200080E0F8CF0F931F93CF93DF93122F032FDE
:10303000843078F4643068F44C3058F40E94E0171F
:10304000EC01602F0E940025612FCE0101960E94A5
:103050000025DF91CF911F910F910895FF920F935B
:103060001F93CF93DF93F42E843040F5611126C077
:1030700024E0829F800111240A551E4F82E090E0D7
:10308000442311F090E080E0800F911F0E94F22411
:10309000C82FD0E0DC2FCC2783E090E0FF2011F098
:1030A00081E090E0800F911F0E94F2249E01282B66
:1030B000C901CDB7DEB7E5E00C94BA2490E080E01A
:1030C000F8CF0F931F93CF93DF93142F022F8430E9
:1030D000F0F461111CC094E0899FE0011124CA55ED
:1030E000DE4F82E090E0442311F090E080E0632F17
:1030F0008C0F9D1F0E94002583E090E0112311F0AA
:1031000081E090E0602F8C0F9D1F0E940025DF91D1
:10311000CF911F910F910895FF920F931F93CF931B
:10312000DF9310E000E0D0E0C02F1AC00E946E02D2
:1031300021E030E08017110639F034F04F2D6D2F6B
:103140008C2F0E9470029C014F2D6D2F8C2F0E949E
:103150001218F3948CE0F812E9CFDF5FD43011F14C
:10316000F12CE4CF41E060E08C2F0E948E029C01A4
:1031700041E060E08C2F0E94611840E060E08C2FFD
:103180000E948E029C0140E060E08C2F0E9461183A
:103190000F5F1F4F0430110531F6CDB7DEB7E5E004
:1031A0000C94BA240E948C028017110609F0D4F600
:1031B00021E030E041E060E08C2F0E94611821E0C6
:1031C00030E0E1CFEF92FF920F931F93CF93DF9305
:1031D000EC018A017C01E60EF71ECE018696CE1523
:1031E000DF0529F4CDB7DEB7E6E00C94B924C0388A
:1031F00021E0D20740F40E94F224F80180830F5F9F
:103200001F4F2196EACFF8011082F9CFB0E0A0E07D
:10321000ECE0F9E10C949B247C016A018C01060F1F
:10322000171FEC01CE018696C017D10729F4CDB740
:10323000DEB7E8E00C94B724C03821E0D20740F4B0
:10324000FE01EE19FF09EC0DFD1D60810E940025B5
:103250002196E8CF843038F4643028F44C3018F4E8
:103260000E94F017089590E080E00895843028F4DB
:10327000611103C00E942E18089590E080E0089527
:1032800080E108958AE492E00895EF92FF920F930F
:103290001F93CF93DF93EC018A017C01E60EF71EAA
:1032A000CE018A549E4FCE15DF0529F4CDB7DEB787
:1032B000E6E00C94B924CA3422E0D20740F40E941C
:1032C000F224F80180830F5F1F4F2196E9CFF801A8
:1032D0001082F9CFB0E0A0E0E0E7F9E10C949B2484
:1032E0007C016A018C01060F171FEC01CE018A5484
:1032F0009E4FC017D10729F4CDB7DEB7E8E00C9494
:10330000B724CA3422E0D20740F4FE01EE19FF09C7
:10331000EC0DFD1D60810E9400252196E7CFCF9323
:10332000DF93C6EBD1E060E0CE010E94002521963C
:10333000C11584E0D807B9F7DF91CF910895A8E0CF
:10334000B0E0E5EAF9E10C949924F82E8FE08F15AE
:1033500008F46EC08FEF93E00E94F224811168C0E0
:1033600006EB11E0F11035C0FE0131966F0188E0E7
:1033700011928A95E9F77801FFEFEF1AFF0AC80169
:103380000E94F22489831A82882309F451C0813073
:10339000D1F4580182E0A80EB11CC7010E94F224AA
:1033A0008A83882309F444C09FEF980F9330F0F488
:1033B000780193E0E90EF11CC5010E94F2248B8391
:1033C0008823B1F11C8260E0C6010E94B516870116
:1033D000D2CF011594E0190759F1C8010E94F224D7
:1033E000811101C0FA940F5F1F4FBCCF750184306B
:1033F00051F702E010E07501EFEFEE1AFE0AC50189
:103400000E94F224F601E00FF11F8083882381F0EF
:103410008C3741F4E2E0F0E0EC0FFD1FE00FF11F0C
:103420001082D1CF0F5F1F4F57010730110519F7D9
:103430002896EAE00C94B524CF93DF93EB01863114
:103440009C4711F50E94720B9A81992399F08A7A10
:1034500091E009F490E090937202811109C089E231
:103460000E944A0B0E94B30B80E0DF91CF91089538
:1034700085E3F6CF80917202811104C089E20E9437
:10348000520BF0CF85E3FBCF81E0EFCF0F931F937B
:10349000CF93DF93C42FD22FFC0182818823C9F000
:1034A000409375020E94E91C90937402809373020A
:1034B00080E28C0F883040F4C77081E001C0880F33
:1034C000CA95EAF70E94C704DF91CF911F910F912F
:1034D000089510917502141332C080917302909177
:1034E00074020E94011D883C910548F5C0E2CD0F91
:1034F0001D17B9F080E2810F883040F4177081E029
:1035000001C0880F1A95EAF70E94CE04C83048F42B
:1035100081E09D2F977001C0880F9A95EAF70E946D
:10352000C704802F0E94BE04C83070F6D77081E0B7
:1035300001C0880FDA95EAF70E94CE04C5CF80E279
:103540008C0F883008F6C77081E001C0880FCA95DB
:10355000EAF7F2CF0F93DB0188519C478730910542
:10356000A0F5FC01E758FA4D0C94842406E221EE04
:1035700041EE6AE17CE7CD010E94461A80E00F919E
:10358000089507E225EE45EE6BE17CE7F4CF06E215
:1035900021EE40EE68E17CE7EECF07E225EE44EE57
:1035A00069E17CE7E8CF06E221EE42EE6CE17CE7E0
:1035B000E2CF07E225EE46EE6DE17CE7DCCF08E2E4
:1035C00021E045EE6EE17CE7D6CF12968C91882300
:1035D00019F010927502D3CF81E0D1CF9093AD0155
:1035E0008093AC01089590937B0280937A020895B2
:1035F000E0917A02F0917B02309729F00190F081FE
:10360000E02D0995089580E00895E0917A02F09107
:103610007B02309799F020911201222359F02091DA
:10362000A00227FF07C0DC012C9111962C93119763
:1036300026E02C930280F381E02D09950895E09116
:103640007A02F0917B02309739F022E0DC012C9372
:103650000480F581E02D09950895A3E0B0E0E3E34F
:10366000FBE10C94A1242091780230917902281773
:103670003907A1F09093790280937802E0917A0261
:10368000F0917B02309751F023E029839B838A835A
:103690000680F781E02DCE01019609952396E2E0A0
:1036A0000C94BD24A3E0B0E0E8E5FBE10C94A12478
:1036B000209176023091770228173907A1F0909374
:1036C000770280937602E0917A02F0917B02309744
:1036D00051F024E029839B838A830680F781E02DC3
:1036E000CE01019609952396E2E00C94BD24FC01DD
:1036F000329680911201882321F08091A0029EE1F0
:1037000087FF96E080E0915008F4089521912223EC
:10371000D1F38F5FF8CF662301F1209112012223AC
:10372000F1F02091A00227FF1AC0462F469546953A
:1037300046954E3190F4677021E030E002C0220FD0
:10374000331F6A95E2F7840F911DFC01828190E09E
:103750002823392381E0232B69F480E00895FC01BC
:10376000329608962191261721F0E817F907D1F72C
:10377000F4CF81E008959C01FC0132969FEF80E038
:103780004191461751F09F3F19F4411101C0982F04
:103790008F5F8630A9F79F3F09F40895290F311DE7
:1037A00097FD3A95F90162830895FC0132960896D7
:1037B0002191261303C0DF0111971C92E817F90726
:1037C000B9F70895E62FE695E695E695EE3168F4AB
:1037D000E80FF92FF11D677021E030E001C0220FE2
:1037E0006A95EAF78281822B82830895E62FE69517
:1037F000E695E695EE3170F4E80FF92FF11D67704C
:1038000021E030E001C0220F6A95EAF7209582811D
:1038100028232283089520911201222339F0209138
:10382000A00227FF03C00E94E21B08950E94BB1B59
:10383000089520911201222339F02091A00227FF40
:1038400003C00E94F61B08950E94D51B0895FC0139
:10385000329680911201882351F08091A00287FF57
:1038600006C08EE1DF011D928A95E9F7089586E092
:10387000F9CF46E050E00E94DC2421E0892B09F4D6
:1038800020E0822F089508950E94431C089581111D
:1038900006C081E080937C020E94441C089582E06F
:1038A000F9CF83E080937C020E94441C08950E941B
:1038B000471C089581E080937C020E94441C089577
:1038C0000E945A1C0895089508950E94641C08954A
:1038D000089508950E94631C0895CF930E94681C68
:1038E0000E94DE100E94691CC0E08C2F0E94121002
:1038F000892B31F4CF5FC430C1F780E0CF910895B8
:1039000081E0FCCF85B7806885BF85B7806885BFBB
:1039100008951F921FB61F9211248F939F93AF9308
:10392000BF9380917D02811113C08091B20290916A
:10393000B302A091B402B091B5024196A11DB11D90
:103940008093B2029093B302A093B402B093B502F5
:10395000BF91AF919F918F911F901FBE1F9018959F
:103960008091BA02843031F10E94950310927D0259
:1039700088E190E020E40FB6F894A8958093600069
:103980000FBE2093600083B7817F846083BF83B7BD
:10399000816083BF7894889583B78E7F83BF0FB68D
:1039A000F894A895809160008861809360001092DF
:1039B00060000FBE08950E941A070E949A0308959E
:1039C00082E084BD93E095BD9AEF97BD80936E0031
:1039D00008952FB7F8948091B2029091B302A0910C
:1039E000B402B091B5022FBF08952FB7F89460913B
:1039F000B2027091B3028091B4029091B5022FBFD0
:103A000008959C014FB7F8948091B2029091B3024F
:103A1000A091B402B091B5024FBF821B930B0895E1
:103A200078941F921FB61F9211248F939F93AF9388
:103A3000BF938091B2029091B302A091B402B09171
:103A4000B5020196A11DB11D8093B2029093B302FD
:103A5000A093B402B093B502BF91AF919F918F91A3
:103A60001F901FBE1F90189587E797E79093010856
:103A70008093000888E19AE00FB6F894A8958093A7
:103A800060000FBE90936000FFCF88E19AE00FB610
:103A9000F894A895809360000FBE90936000FFCFCC
:103AA00080919E0208959B01BA019091BA029430D0
:103AB000E9F48F708093E9009FEF8091E8009150C6
:103AC00085FD06C085ED8A95F1F700009111F5CFCF
:103AD0008091E80085FF0AC050E040E0C9010E94E3
:103AE0009A1F8091E8008E778093E800089543E064
:103AF00050E0BC0184E00E94531D089546E050E070
:103B0000BC0184E00E94531D0895CF93DF93EC0124
:103B100080911201811111C048E050E0BE0181E0A6
:103B20000E94531D80E2FE01AEE7B2E001900D92CB
:103B30008A95E1F7DF91CF9108958091A00287FFE8
:103B400005C040E284E050E0BE01EACF48E081E0F9
:103B5000FACF603231F440E250E0BC0182E00E94D2
:103B6000531D08958091B902811109C00E947921E5
:103B70000E94D6218091E20084608093E200089543
:103B80001092B90208950E945A1C08956091B602DD
:103B900081E0611101C080E00E94511C0895909164
:103BA000BA0281E0943009F080E06091B6020E9490
:103BB000571C089542E061EC81E00E94F52042E24A
:103BC00061EC84E00E94F52042E261EC82E00E9418
:103BD000F52042E260EC83E00E94F5209091BA0269
:103BE00081E0943009F080E06091B6020E94471CA9
:103BF00008958091BC02833009F463C030F48130B1
:103C0000E1F1823009F4A0C008958A3009F48CC033
:103C10008B3009F471C0893009F052C08091BB0229
:103C2000813209F04DC08091BF029091C00200978F
:103C300019F0029709F044C08091E800877F8093D3
:103C4000E8008091E80082FF37C09091F3008091F6
:103C5000F200029731F48091F100813011F086304A
:103C600021F48091F10080939E028091E8008B778F
:103C70008093E8000E94292123C08091BB02813AF1
:103C8000F9F48091E800877F8093E8008091BF027B
:103C90009091C002892B61F460E28EE792E070E0BF
:103CA0000E9438208091E8008B778093E800089587
:103CB00060E090E080E0F3CF8091BA028111C1CF43
:103CC00008958091BB02813AD9F78091BF0290910B
:103CD000C002892BA9F78091E800877F8093E800D4
:103CE0008091E80080FFFCCF809112018093F10069
:103CF0008091E8008E77BCCF8091BB02813201F7C2
:103D00008091BF029091C002892BD1F68091E8008A
:103D1000877F8093E8000E9429218091BD028093D3
:103D200012010E941A0708958091BB02813241F668
:103D30008091E800877F8093E8000E94292180918C
:103D4000BE0280939F0208958091BB02813A09F0E0
:103D5000B7CF8091E800877F8093E8008091E800EA
:103D600080FFFCCF80919F02C1CF84B7877F84BF43
:103D70000FB6F894A89580916000886180936000E8
:103D8000109260000FBE80E890E00FB6F894809328
:103D90006100909361000FBE0E94601C08950E9414
:103DA00079210E94D621E2EEF0E080818460808358
:103DB00078940E94552408958AE091E00E94F31AB5
:103DC00008958091BA02853031F48091BA0285302D
:103DD00019F00E94DB1C08950E94B01C8091B8026B
:103DE000882399F30E946D1C882379F30E94841F15
:103DF0000E941A07EACFA0E2B0E0E1E0FFE10C94F4
:103E0000A1248091BA02843009F583E08093E9000F
:103E10008091E80082FF1AC08091E80090E085FF61
:103E200009C050E040E060E270E0CE0101960E94DF
:103E3000E91F91E08091E8008B778093E800992357
:103E400029F060E2CE0101960E949F14A096E2E064
:103E50000C94BD240E942D1F0895292F3327233051
:103E6000310521F168F42130310509F443C02230D5
:103E7000310509F444C090E080E030E020E026C045
:103E80002132310551F122323105A9F76330710534
:103E900090F7FB01EE0FFF1FE056FE4F20813181AE
:103EA00063567E4FFB01808190E010C099278130DE
:103EB000910581F0009729F00297E9F6ECEEF2E027
:103EC00002C0E8E0F3E0849190E09F01FA013183C1
:103ED00020830895ECEFF2E0F6CF6330710558F6D9
:103EE000660F771FFB01EA55FE4F2081318189E083
:103EF00090E0ECCF82E190E027E633E0E7CF8BE57E
:103F000090E02CE033E0E2CF80E189BD82E189BD21
:103F100009B400FEFDCF8091D8008F7D8093D8003A
:103F20008091E00082608093E0008091E00081FD5C
:103F3000FCCF0895AF92BF92CF92DF92FF920F9382
:103F40001F93CF93DF936C01EB018A010E944821FC
:103F5000F82E811123C00115110539F0F801808177
:103F60009181C81BD90BC80ED91EB12CA12C20974A
:103F7000A9F08091E80085FD22C08091E8008E774D
:103F80008093E80001151105A1F0F801808191816D
:103F9000A80EB91EB182A08285E0F82E8F2DDF9188
:103FA000CF911F910F91FF90DF90CF90BF90AF9076
:103FB00008950E9448218823D1F2F82EEFCFF60110
:103FC00081916F018093F1002197FFEFAF1ABF0A33
:103FD000CECFAF92BF92CF92DF92FF920F931F93FB
:103FE000CF93DF936C01EB018A010E944821F82EE8
:103FF000811123C00115110539F0F80180819181EB
:10400000C81BD90BC80ED91EB12CA12C2097A9F022
:104010008091E80085FD22C08091E8008B77809335
:10402000E80001151105A1F0F80180819181A80E29
:10403000B91EB182A08285E0F82E8F2DDF91CF913D
:104040001F910F91FF90DF90CF90BF90AF90089598
:104050000E9448218823D1F2F82EEFCF8091F10001
:10406000F60181936F012197FFEFAF1ABF0ACECF00
:10407000FC018091C1029091C20286179707A0F0BF
:104080006115710529F49091E8009E779093E800FE
:1040900090E06115710551F4911108C08091E8001C
:1040A00082FF34C080E00895BC01F2CF8091BA0253
:1040B0008823C1F18530C1F18091E80083FD30C0D3
:1040C0008091E80082FDEACF8091E80080FFE1CF97
:1040D0008091F3002091F200382F6115710519F0DD
:1040E0002830310558F091E02830310509F090E092
:1040F0002091E8002E772093E800CBCF8191809328
:10410000F100615071092F5F3F4FE7CF8091BA02F4
:10411000882341F0853041F08091E80083FFBECFD5
:1041200081E0089582E0089583E00895FC01809184
:10413000C1029091C20286179707A0F06115710520
:1041400029F48091E8008E778093E80090E0611573
:10415000710551F4911108C08091E80082FF35C0CB
:1041600080E00895BC01F2CF8091BA028823C9F1A2
:104170008530C9F18091E80083FD31C08091E8006D
:1041800082FDEACF8091E80080FFE1CF8091F300CB
:104190002091F200382F6115710519F02830310592
:1041A00058F091E02830310509F090E08091E80066
:1041B0008E778093E800CBCF84918093F100319685
:1041C000615071092F5F3F4FE6CF8091BA0288237B
:1041D00041F0853041F08091E80083FFBDCF81E060
:1041E000089582E0089583E00895982F973028F08D
:1041F0008F708093E90081E008959093E900242F67
:10420000762F50E0981731F07091EC002091ED007E
:104210005091F00021FD02C09F5FE8CF3091EB008C
:104220003E7F3093EB003091ED003D7F3093ED0009
:104230003091EB0031603093EB007093EC002093F1
:10424000ED005093F0002091EE0027FDE5CF80E0D7
:1042500008958091BB0287FF13C08091E80082FF20
:1042600006C08091E8008B778093E80004C08091BD
:10427000BA028111F2CF08958091BA028823D9F34E
:104280008091E80080FFF8CF8091E8008E77ECCF36
:104290002091E4003091E50095E6A9012091EC0021
:1042A000822F817020FF06C08091E80080FF06C049
:1042B00080E008952091E80022FD1AC08091BA02A2
:1042C000882389F0853089F08091EB0085FD0FC04F
:1042D0002091E4003091E50042175307F9F2915024
:1042E000E1F684E0089582E0089583E0089581E096
:1042F00008950E94E8210E94F021E0EEF0E0808124
:1043000081608083E8EDF0E080818F77808319BC45
:10431000A7EDB0E08C918E7F8C9380818F7E80831F
:104320001092B90208950F931F93CF93DF930E94C9
:10433000E8210E94F021C8EDD0E088818F77888342
:1043400088818068888388818F7D888319BC1092DA
:10435000BA021092B6021092B8021092B70200EEA2
:1043600010E0F80180818B7F808388818160888361
:1043700042E060E080E00E94F520E1EEF0E0808124
:104380008E7F8083E2EEF0E0808181608083808197
:1043900088608083F80180818E7F8083888180613E
:1043A0008883DF91CF911F910F910895E8EDF0E0A0
:1043B00080818F7E8083E7EDF0E080818160808363
:1043C00084E082BF81E08093B9020E949321089526
:1043D000E8EDF0E080818E7F80831092E200089506
:1043E0001092DA001092E10008951F920F920FB61A
:1043F0000F9211242F933F934F935F936F937F936B
:104400008F939F93AF93BF93EF93FF938091E100BE
:1044100082FF0BC08091E20082FF07C08091E10023
:104420008B7F8093E1000E9454248091DA0080FF0A
:1044300019C08091D80080FF15C08091DA008E7F6E
:104440008093DA008091D90080FF96C080E189BD19
:1044500082E189BD09B400FEFDCF81E08093BA02FC
:104460000E94B21D8091E10080FF19C08091E2009E
:1044700080FF15C08091E2008E7F8093E2008091E2
:10448000E20080618093E2008091D8008062809396
:10449000D80019BC85E08093BA020E94C61D8091A5
:1044A000E10084FF2BC08091E20084FF27C080E1FF
:1044B00089BD82E189BD89B5982F917080FFFBCFBE
:1044C0008091D8008F7D8093D8008091E1008F7E0D
:1044D0008093E1008091E2008F7E8093E2008091E2
:1044E000E20081608093E2008091B602882309F4A3
:1044F00049C084E08093BA020E94CF1D8091E10000
:1045000083FF29C08091E20083FF25C08091E100F4
:10451000877F8093E10082E08093BA021092B60216
:104520008091E1008E7F8093E1008091E2008E7F98
:104530008093E2008091E20080618093E20042E09B
:1045400060E080E00E94F5208091F0008860809318
:10455000F0000E94C31DFF91EF91BF91AF919F9119
:104560008F917F916F915F914F913F912F910F901C
:104570000FBE0F901F90189519BC1092BA020E949E
:10458000C01D70CF8091E30087FD93E09093BA0245
:10459000B3CF1F920F920FB60F9211242F933F9318
:1045A0004F935F936F937F938F939F93AF93BF933B
:1045B000CF93DF93EF93FF93D091E900DF70809169
:1045C000EC00C82FC17080FDC0E81092E900809116
:1045D000F000877F8093F00078940E940D23109262
:1045E000E9008091F00088608093F000CD2BCF70BF
:1045F000C093E900FF91EF91DF91CF91BF91AF910F
:104600009F918F917F916F915F914F913F912F91EA
:104610000F900FBE0F901F901895AAE2B0E0E3E153
:10462000F3E20C94A0248BEB92E02091F100FC01CA
:104630002193CF01F2E0833C9F07B9F70E94F91D57
:104640008091E80083FF1EC18091BB029091BC0263
:104650009A3008F017C1E92FF0E0E058FA4D0C94B9
:104660008424803899F0823809F00CC18091BF020F
:104670008F70873008F006C18093E9008091EB00CD
:1046800085FB882780F91092E90006C08091B70267
:104690009091B802911182609091E800977F909379
:1046A000E8008093F1001092F1008091E8008E778D
:1046B000E5C0882309F4D3C0823009F0E3C08091BB
:1046C000BD028111D6C08091BF028F702FEF280FDD
:1046D000263008F0D7C08093E9002091EB0020FF3E
:1046E000C8C0933031F48091EB0080628093EB007E
:1046F000C0C09091EB0090619093EB0021E030E01E
:1047000001C0220F8A95EAF72093EA001092EA008E
:104710008091EB008860EACF8111B4C01091BD0296
:104720001F778091E3008078812B8093E300809154
:10473000E800877F8093E8000E9429218091E800AB
:1047400080FFFCCF8091E30080688093E30082E0EB
:10475000111183E08093BA0295C08058823008F02E
:1047600091C08091BD029091BE028C3D23E09207E2
:10477000A1F583E08A838AE289834FB7F894DE014A
:10478000139620E03EE051E2E32FF0E05093570013
:10479000E49120FF03C0E295EF703F5FEF708E2F32
:1047A00090E0EA30C0F0C7968D939D932F5F24313F
:1047B00059F74FBF8091E800877F8093E8006AE255
:1047C00070E0CE0101960E9438208091E8008B773E
:1047D0008093E80057C0C096E7CF6091BF02709108
:1047E000C002AE014F5F5F4F0E942A1FBC01892BA0
:1047F00009F448C09091E800977F9093E800898180
:104800009A810E949620E1CF8038E1F58091E800FE
:10481000877F8093E8008091B6028093F10045CFB6
:10482000811130C09091BD02923060F58091E80016
:10483000877F8093E8009093B6020E94292180919F
:10484000B602882311F084E005C08091E30087FD63
:10485000FACF81E08093BA020E94DA1D13C08091E2
:10486000BD02813079F481E0933009F080E08093DB
:10487000B8021092E9008091E800877F8093E800F9
:104880000E9429218091E80083FF0AC08091E800FE
:10489000877F8093E8008091EB0080628093EB003B
:1048A000AA96E3E00C94BC240895CF938091BA02B9
:1048B0008823A1F0C091E900CF709091EC00892F7E
:1048C000817090FD80E8C82B1092E9008091E8008B
:1048D00083FD0E940D23CF70C093E900CF9108950E
:1048E00097FB072E16F4009407D077FD09D00E949D
:1048F000C82407FC05D03EF4909581959F4F0895FC
:10490000709561957F4F0895EE0FFF1F0590F4910C
:10491000E02D099469279627692778278727782724
:1049200008952F923F924F925F926F927F928F9253
:104930009F92AF92BF92CF92DF92EF92FF920F932E
:104940001F93CF93DF93CDB7DEB7CA1BDB0B0FB638
:10495000F894DEBF0FBECDBF09942A8839884888F5
:104960005F846E847D848C849B84AA84B984C8848B
:10497000DF80EE80FD800C811B81AA81B981CE0F82
:10498000D11D0FB6F894DEBF0FBECDBFED01089567
:10499000AA1BBB1B51E107C0AA1FBB1FA617B70765
:1049A00010F0A61BB70B881F991F5A95A9F7809581
:1049B0009095BC01CD010895FB01DC0104C08D91EF
:1049C0000190801921F441505040C8F7881B990B81
:1049D0000895FB01DC0102C001900D92415050404E
:1049E000D8F70895F999FECF92BD81BDF89A99271D
:1049F00080B50895A8E1B0E042E050E00C9426258F
:104A0000262FF999FECF92BD81BDF89A019700B487
:104A1000021639F01FBA20BD0FB6F894FA9AF99A27
:104A20000FBE08950396272F0E9401250E9400259E
:104A3000252F0E940125242F0C9401250196272F54
:104A40000E9401250C940025DC01CB01FC01F999A1
:104A5000FECF06C0F2BDE1BDF89A319600B40D92CA
:104A600041505040B8F70895F894FFCF1005100555
:104A700041054105D305EF0570057005F4055B069A
:104A80006A066A06B414C014ED14FF140A1515154D
:104A9000181518151815C614C6141D152115291535
:104AA0003615431546154915561563156D15D4155C
:104AB0004816DC15A615AA15E015AE15E415F01577
:104AC000BA154116BE15F415C215F8152016C615EF
:104AD000FC152716CC1502160A16B215E815B615E0
:104AE000EC15D0150616161630163F16A015D8155B
:104AF0004F16C71ACD1AB61AC11AD31AD91ADF1A05
:104B0000312359234224592342248C23AD234224A8
:044B10000424102445
:104B14002502280850011E0A1401501D851D7E1D02
:104B2400771D01E200E900EA00B500B600B700CD48
:104B3400008301CC008A0192019401210223022402
:104B4400022502260227022A02B300B4006F007075
:104B5400009F01CB01818283E200E900EA00B500F5
:104B6400B600B700CD008301CC008A019201940104
:104B74002102230224022502260227022A02B3006C
:104B8400B4006F0070009F01CB018182839466970B
:104B9400C63435F4F5F6F731339392919000FF0162
:104BA40000010000FFFF0000010001FF004022B6E9
:0C4BB400510479039B031E0337035703D1
:00000001FF
