:100000000C948C060C94A9060C94A9060C94A906D1
:100010000C94A9060C94A9060C94A9060C94A906A4
:100020000C94A9060C94A9060C94902F0C9464309F
:100030000C94FD280C94A9060C94A9060C94A9060E
:100040000C94A9060C94A9060C94A9060C94A90674
:100050000C94A9060C9484290C94A9060C94A90666
:100060000C94A9060C94A9060C94A9060C94A90654
:100070000C94A9060C94A9060C94A9060C94A90644
:100080000C94A9060C94A9060C94A9060C94A90634
:100090000C94A9060C94A9060C94A9060C94A90624
:1000A0000C94A9060C94A9060C94A906A900AA0010
:1000B000C95CCA5CC55CC65CC35CC45C2B00140034
:1000C0001A000800150017001C0018000C00120090
:1000D00013002A00290004001600070009000A0086
:1000E0000B000D000E000F0033003400E1001D0076
:1000F0001B00060019000500110010003600370033
:100100003800E500E0000000E300E20002512C00AE
:10011000280001515000510052004F0035001E00D0
:100120001F002000210022002300240025002600BB
:10013000270001004C003A003B003C003D003E001F
:100140003F002D002E002F0030003100390040000C
:1001500041004200430044004500320064004B006F
:100160004E00280001000100010001000100AE0066
:10017000AE000100AC00AA00A900AB0035021E02CF
:100180001F0220022102220223022402250226024B
:10019000270201004C003A003B003C003D003E00BD
:1001A0003F002D022E022F023002310239004000A2
:1001B00041004200430044004500320264024A000C
:1001C0004D00280001000100010001000100AE0007
:1001D000AE000100AC00AA00A900AB0000000000C6
:1001E000C25CC35CC55CC65CC75CC85CC95CCA5CFD
:1001F00000004C00000000000000000000000000B3
:1002000000000000000000000000000000000000EE
:1002100000000000000000000000000000000000DE
:1002200000000000000000000000000001000000CD
:100230000000010000000000000000000A0025305E
:10024000313662003A200025303258000A722F639E
:100250002030313233343536373839414243444522
:10026000460A00290A002575002F002575005D2823
:100270000025640020002564002000256400200083
:100280002564007C0025303258006D6F7573656BF6
:100290006579205B62746E7C782079207620685DB9
:1002A000287265702F61636C293A205B00FD377AF4
:1002B000585A000004E6D6B4460200210116000098
:1002C00000742FE5A3E002BD013A5D003D8889C6B8
:1002D0005436C3174FE4E7E3B0AFE0DAA654738BAC
:1002E000FE0B8C69952A05C3D7C3567AE5DEA54770
:1002F0008BDA085B804087F8A2165692FEE01CFB62
:10030000CD6A7AA87BD427CE18AAA28DEA15E0F38D
:100310008B934F39CB7772566E30091E022E77338E
:10032000E291C99541CD2B789756794A451D0F0327
:100330009A4B645E5EEF2188A6F32C44D0A0A79967
:10034000E6B42F43DFE071DFF6A0D3BC3150FABB37
:10035000BD4AD36D7305D44E90C7CC4A5DE49B5F14
:100360003C01391F007761C2D2A763C837DA592A26
:10037000FD423C95D32DDC1003E9C0C3BB3C04C057
:10038000AE22C130D36F7B2B0F8870A31B1A72FA79
:100390004FE3AA501FCC810D12FAF39980562FC457
:1003A000ECDF2DCA9673AE8E6A483AEC8248F65856
:1003B0001C023428DF86BA6A2CA496FA3643E21A65
:1003C00042C37BDC6BC9519B0CC126A5980C7ED225
:1003D000C4163A9FB5F5BEF5D3875C68D4CC450307
:1003E0008A4BC4BB1AD9EF9D434F7AC3AA2DF4326E
:1003F000D5793F6EA126D9D0E3E85F6D48BAC843EE
:10040000929A593B5FFB000000129620D31145B829
:10041000D00001D602BE050000CD839486B1C4672A
:10042000FB020000000004595A0000000000000018
:10043000002A2B280000000000000000000000003F
:100440000000000029000000002C1E34202122247E
:10045000342627252E362D3738271E1F202122230C
:100460002425263333362E37381F0405060708099E
:100470000A0B0C0D0E0F1011121314151617181964
:100480001A1B1C1D2F3130232D35040506070809C2
:100490000A0B0C0D0E0F1011121314151617181944
:1004A0001A1B1C1D2F3130354C00000000000000CD
:1004B000000000000000000000000000000000003C
:1004C000000000000000000000000000007E0F009F
:1004D000D4FFFFFFC700000078313A0964656C6102
:1004E00079282A31306D73293A2025750A323A0964
:1004F000696E74657276616C286D73293A20257572
:100500000A333A096D61785F73706565643A202536
:10051000750A343A0974696D655F746F5F6D61784F
:100520003A2025750A353A09776865656C5F6D6113
:10053000785F73706565643A2025750A363A0977E5
:100540006865656C5F74696D655F746F5F6D617818
:100550003A2025750A00703A097072696E74207627
:10056000616C7565730A643A097365742064656625
:1005700061756C74730A75703A092B310A646E3AAE
:10058000092D310A6C743A092B31300A72743A0918
:100590002D31300A4553432F713A09717569740A38
:1005A0000A7370656564203D2064656C7461202A5F
:1005B000206D61785F7370656564202A20287265FC
:1005C00070656174202F2074696D655F746F5F6D55
:1005D0006178290A77686572652064656C74613A90
:1005E00020637572736F723D25642C207768656592
:1005F0006C3D25640A53656520687474703A2F2F2A
:10060000656E2E77696B6970656469612E6F7267BC
:100610002F77696B692F4D6F7573655F6B657973A4
:100620000A004D3E20004D25753A25733E20003FBF
:100630000A003D2025750A003F0A00646566617561
:100640006C74730A0025750A003F0A000A092D2000
:1006500056616C756573202D0A00710A000A092D18
:10066000204D6F7573656B6579202D0A003F00433F
:100670003E20004C25640A000A092D205374617441
:100680007573202D0A686F73745F6B6579626F6193
:1006900072645F6C65647328293A20253032580AE9
:1006A0006B6579626F6172645F70726F746F636F94
:1006B0006C3A20253032580A6B6579626F6172643A
:1006C0005F69646C653A20253032580A6B65796D34
:1006D00061705F636F6E6669672E6E6B726F3A2032
:1006E000253032580A74696D65725F7265616433D2
:1006F0003228293A202530386C580A002573000A20
:10070000092D20436F6E736F6C65202D0A4553438E
:100710002F713A09717569740A6D3A096D6F7573B5
:10072000656B65790A000A092D204D6167696320B0
:100730002D0A443A094465627567204D65737361FB
:10074000676520546F67676C650A583A094D617494
:10075000726978204465627567204D6F6465205426
:100760006F67676C65202D2053686F77206B657904
:100770007072657373657320696E206D6174726940
:100780007820677269640A4B3A094B6579626F6138
:10079000726420446562756720546F67676C6520DA
:1007A0002D2053686F77206B6579707265737320A5
:1007B0007265706F72740A4D3A09446562756720FC
:1007C0004D6F75736520546F67676C650A563A09FB
:1007D00056657273696F6E0A533A09537461747582
:1007E000730A433A09416374697661746520436F03
:1007F0006E736F6C65204D6F64650A46312D46310E
:10080000303A0953776974636820746F204C6179BA
:10081000657220302D392028463130203D204C3063
:10082000290A302D393A0953776974636820746F47
:10083000204C6179657220302D390A475241564566
:100840003A0953776974636820746F204C61796545
:100850007220302028616C7465726E617465290A9B
:10086000423A094A756D7020746F20426F6F746C44
:100870006F616465720A4553433A094A756D702089
:10088000746F20426F6F746C6F61646572202861B1
:100890006C7465726E617465290A453A0950726913
:1008A0006E7420454550524F4D2053657474696EE7
:1008B00067730A4241434B53504143453A09436CE5
:1008C00065617220454550524F4D0A4E3A094E4BD4
:1008D000524F20546F67676C650A006B65796D61D4
:1008E000705F636F6E6669672E7261773A2025309C
:1008F00032580A2E737761705F636F6E74726F6C1B
:100900005F636170736C6F636B3A2025750A2E63A9
:100910006170736C6F636B5F746F5F636F6E747223
:100920006F6C3A2025750A2E737761705F6C637463
:100930006C5F6C6775693A2025750A2E7377617054
:100940005F7263746C5F726775693A2025750A2E51
:10095000737761705F6C616C745F6C6775693A2066
:1009600025750A2E737761705F72616C745F7267B0
:1009700075693A2025750A2E6E6F5F6775693A2092
:1009800025750A2E737761705F67726176655F65A2
:1009900073633A2025750A2E737761705F62616315
:1009A0006B736C6173685F6261636B7370616365C5
:1009B0003A2025750A2E6E6B726F3A2025750A2E25
:1009C000737761705F6573636170655F6361707396
:1009D0006C6F636B3A2025750A0064656275675F0A
:1009E000636F6E6669672E7261773A2025303258E0
:1009F0000A2E656E61626C653A2025750A2E6D615E
:100A0000747269783A2025750A2E6B6579626F6178
:100A100072643A2025750A2E6D6F7573653A20252C
:100A2000750A006565636F6E6669673A0A64656694
:100A300061756C745F6C617965723A2025750A0086
:100A40003F004E4B524F3A206F66660A004E4B52A3
:100A50004F3A206F6E0A000A6D6F7573653A206F0A
:100A600066660A000A6D6F7573653A206F6E0A003C
:100A70000A6B6579626F6172643A206F66660A007C
:100A80000A6B6579626F6172643A206F6E0A000AC0
:100A90006D61747269783A206F66660A000A6D614A
:100AA000747269783A206F6E0A000A64656275672D
:100AB0003A206F66660A000A64656275673A206FBD
:100AC0006E0A000A0A4A756D70696E6720746F209D
:100AD000626F6F746C6F616465722E2E2E200043FE
:100AE0003E2000436C656172696E67204545505237
:100AF0004F4D0A005B735D005B575D005B535D000B
:100B00005B525D005B445D005B435D001C0376004F
:100B1000690061006C003A00660036003400630032
:100B2000320062003300630000000E0356004F00E5
:100B3000490044003400300000000A0356004F0012
:100B40004900440000000403090409027B00040179
:100B500000A0FA09040000010301010009211101AC
:100B6000000122400007058103080001090401007B
:100B700002030000000921110100012222000705E3
:100B8000820320000107050303200001090402007D
:100B9000010300000009211101000122BC0007052A
:100BA000840320000109040300020300000009215E
:100BB000110100012222000705850320000107051D
:100BC0000503200001120100020000000855F03169
:100BD000350001010203010631FF0974A101097505
:100BE000150026FF0095207508810209761500265C
:100BF000FF00952075089102C00660FF0961A10100
:100C00000962150026FF0095207508810209631509
:100C10000026FF00952075089102C005010902A178
:100C20000185020901A10005091901290515002501
:100C30000195057501810295017503810105010981
:100C40003009311581257F9502750881060938150F
:100C500081257F950175088106050C0A38021581EA
:100C6000257F950175088106C0C005010980A10195
:100C7000850319012AB700150126B70095017510E3
:100C80008100C0050C0901A101850419012AA002F7
:100C9000150126A002950175108100C00501090605
:100CA000A1018506050719E029E71500250195082A
:100CB000750181020507190029EF1500250195F03E
:100CC0007501810205081901290595057501910233
:100CD000950175039101C005010906A101050719D8
:100CE000E029E71500250195087501810295017538
:100CF0000881010507190029FF150026FF00950648
:100D000075088100050819012905950575019102ED
:100D1000950175039101C00011241FBECFEFDAE0E9
:100D2000DEBFCDBF12E0A0E0B1E0EEE9F6E602C022
:100D300005900D92A03DB107D9F723E0A0EDB2E0F8
:100D400001C01D92AE3FB207E1F70E94A7170C94B5
:100D5000EA320C940000FF93EF93E091D002F091FF
:100D6000D102309709F00995EF91FF910895FC01A8
:100D70008591803011F0EFDFFBCF0895FF27E0E28F
:100D800030E247FF0CC0419597FF09C0EDE2609546
:100D9000709580959095611D711D811D911D27FF96
:100DA00002C0219530E350E2AA27660F771F881F03
:100DB000991FAA1FA41710F0A41B63955A95A9F7B1
:100DC000AA3008F0A95FA05DAF93F3956115710596
:100DD0008105910541F7ED3211F4EF93F395F21788
:100DE00018F43F93F395FBCF8F91B5DFFA95E1F7B8
:100DF0000895E991F9918591803021F0853219F0BB
:100E0000AADFF9CF089520E0E89455915532C1F357
:100E1000503311F4689455915A3348F4505390F379
:100E2000220F022E220F220F200D250FF4CF0EF4D9
:100E3000219589919991533619F3533729F15335F7
:100E400059F1BC0188279927E8945C3621F48991EF
:100E5000999168945591543639F446EF7EF077FFB6
:100E60000DC08FEF9FEF0AC055374AE039F0583573
:100E700040E121F0523642E009F00895FF93EF93EC
:100E80007DDFEF91FF91B7CFFF93EF93FC0181914D
:100E90008030B9F360DFFBCFFF93EF9368DFF1CFD2
:100EA000DF93CF93CDB7DEB72596A3DFCF91DF9148
:100EB000089523E041E062E00E941908089584E06B
:100EC000089584E008959C013A9521153F4150F51D
:100ED000FC01EE27F170BC0166277270AC0144275B
:100EE00054709C012227387094FF0EC080E1EF2BD4
:100EF00009F480E0672B09F08062452B09F08064DB
:100F0000232B89F08068089581E0EF2B09F480E0BD
:100F1000672B09F08260452B09F08460232B19F0C0
:100F20008860089580E00895CF93DF93EB010E94DD
:100F30006307FE010995DF91CF910895CF93DF9369
:100F4000EC01805E9109089720F062E97CE020972F
:100F500011F46AE17AE0CE010E9494078C2F0E947E
:100F60007609DF91CF910895CF93DF93EC010E9432
:100F7000C709CE01805E9109089720F069E97CE0FD
:100F8000209711F461E27AE0CE010E949407DF918C
:100F9000CF91089581E0089581E008950E94CC07E3
:100FA000089508950E94D1070895A5E0B0E0EBED03
:100FB000F7E00C94463249835A833091D7028981F5
:100FC0009A81311119C0662399F0222389F00E9479
:100FD000FA0D182F682F89819A810E94C10D6981AD
:100FE0007A81812F0E94491F2596E3E00C9462329A
:100FF0000E94DD0D182FF3CF0E94FA0D69817A81CE
:10100000F1CFFC01262F408151816281738184815F
:101010000E94D507089581E00895CF93DF93EC01F6
:1010200060E00E940108BE010E94D207DF91CF91CB
:101030000895E1E0F0E0DF0102C0AA0FBB1F6A954E
:10104000E2F7BD01DF0102C0AA0FBB1F4A95E2F71C
:101050006A2B01C0EE0F2A95EAF7962F9823961374
:1010600002C08E2B0895E0958E230895242F462FDD
:10107000682F8091ED020E9419080E94210D0895A9
:101080000E940B1608950E940F16089508950E945D
:10109000B60C0E9446082FEF84E39CE0215080406C
:1010A0009040E1F700C0000008950E9447080E94A8
:1010B000A82908950E9447080E94B92908950F930E
:1010C0001F93CF93DF93EC018B010E94371B81119B
:1010D00006C080E0DF91CF911F910F910895B80174
:1010E000CE010E94CB1D8823A1F3B801CE010E943E
:1010F000CE07882371F3B801CE010E942E278823E2
:1011000041F3B801CE010E948620882311F3B80173
:10111000CE010E94A0268823E1F2F8018281882373
:1011200061F0CA35FDE5DF0701F158F4C115ECE5C2
:10113000DE0791F0CE3DDC4591F0C8010E94CA0760
:10114000C9CFCC358DE5D80769F090F0C73ADD45B9
:10115000A1F70E945A08BDCF0E945508BACF0E943D
:101160000713F7CF0E944112E8CF0E944B12E5CF40
:101170000E944F12E2CFCF93DF93EC0161E00E9417
:101180000108BE010E945F08DF91CF9108950E947F
:10119000D9280E94090908950E940D090E94DE289D
:1011A0000895829590E09C01220F331F220F331F78
:1011B0002C7C95958795959587958373282B30E0A2
:1011C000C901880F991F8A7A359527952575822B35
:1011D0000895CF93DF93D92F0E94D108C82F8D2F68
:1011E0000E94D1089C2FDF91CF91089508950E940D
:1011F000F608089581E008950E94FA080895089578
:10120000CF93C82F0E94F7088C2F0E94FC08CF9123
:10121000089580E00E94000908950E948A270E9494
:1012200000090895CF930E948A27C82F8091D20287
:101230008C1779F0C093D2020E9469296093D3027F
:101240007093D4028093D5029093D6028C2F0E9483
:101250000009CF910895ABE0B0E0E1E3F9E00C9430
:1012600047324F83588769877A878B8761110E943D
:1012700060111E821D8285E0FE013796DE01119607
:1012800001900D928A95E1F78091DA0382FF0CC0FC
:101290000E942311882319F082E00E9410120E94FC
:1012A0000A1181110E948E118C819D81892B61F41C
:1012B00049815A816B817C818D819E810E94611060
:1012C0002B96E2E00C94633289819A8189238F3FC7
:1012D00079F3CE0101960E940B088111E9CFF0CF7E
:1012E000FC01808191810E94270E0895CF93C82F21
:1012F0008823E1F08CEF8C0F813AD0F48C2F0E9480
:101300004C26811113C06C2F809100019091010136
:101310000E94FF27882329F08C2F0E94F8100E943A
:101320009C118C2F0E94F0100E949C11CF91089567
:1013300080E28C0F883048F4C77081E001C0880FCC
:10134000CA95EAF70E944311EFCFEBE5EC0FE330CB
:1013500040F4F0E0E15BFE4F808190E00E94BF2707
:10136000E5CFE8E5EC0FE73150F4F0E0EE0FFF1FBA
:10137000EF5DFE4F808191810E94D527D7CFC03F7E
:10138000A8F28C2F0E942B180E941619CFCF882309
:1013900079F19CEF980F913A28F40E94F8100E947E
:1013A0009C11089590E2980F983050F4877091E066
:1013B00001C0990F8A95EAF7892F0E944911EFCF52
:1013C0009BE5980F933028F490E080E00E94BF27BF
:1013D000089598E5980F973128F490E080E00E94F6
:1013E000D5270895803F20F00E9493180E94161977
:1013F00008951F93CF93DF93182FEB010E94760976
:10140000209739F4812F0E94C709DF91CF911F9156
:1014100008958FE99FE00197F1F700C00000219740
:10142000EFCF70E060E0893311F460E570E00E9476
:10143000F9090895882321F00E9443110E949C110C
:101440000895882321F00E9449110E949C1108955B
:10145000B0E0A0E0EEE2FAE00C9440326C01D62F4E
:10146000C72FFC010281F580F2949FE0F9220E94CF
:101470003911E82E8823B9F0E02E0023A1F08C2F3B
:10148000807F803421F080E28D0F8830D0F0809111
:10149000DA0382FF16C082E00E9410120E94391106
:1014A00091E0E82EE926BC2EB2948FE0B822FBE052
:1014B000FB1508F468C0EB2DF0E0E451FD4C0C94F2
:1014C0002A32E12CF0CF1C2F1F70C07F11F0129533
:1014D000107F002399F0112359F080E28D0F88309E
:1014E00010F0D11107C0812F0E9443110E949C115E
:1014F0008D2F41C0812F0E945311F8CF8D2F0E9454
:10150000C709112309F43FC080E28D0F883010F025
:10151000D11104C0812F0E94491103C0812F0E9464
:1015200059110E949C112FC01C2F1F70C07FC03208
:1015300011F01295107FDD2381F0D13009F482C0C3
:10154000002309F48BC0FF2009F45BC0F6018581FC
:1015500080FFCECF8F70858354C08091DA0382FDE7
:1015600033C0002359F0112329F0812F0E94431129
:101570000E949C1180E00E94760905C080E00E94D4
:10158000C7091111C7CFEB2DE850FF0B349720F49A
:101590000E948A270E940009EE2089F00E941F11F4
:1015A00080FD0DC0F60112820E9419110E94350DB6
:1015B000C6010E94680C0E9419110E94410DCDB70E
:1015C000DEB7E9E00C945C320023E9F0F11006C0CC
:1015D0000E946311812B0E941A0AD5CF21E0F212DA
:1015E00006C00E946311812B0E947711CCCF35E099
:1015F000F312EECF0E948E110E940711812B0E94E0
:101600006A11812FE8CFF11003C00E948E1111C022
:1016100081E0F81212C00E944011812309F4B3CF77
:101620000E948E110E940711912F909589230E948C
:101630006A11812F0E94210AA6CF95E0F91609F4BC
:10164000A2CFE3CF002329F0E5E0EF1508F49BCF0C
:10165000D8CFF4E0FF1508F496CFEBCFFF2049F385
:10166000D93349F4FFEF27EE33E0F150204030400A
:10167000E1F700C000008D2F0E94C70984CF8C2F96
:1016800086958695837069F0813009F07CCF8D2F27
:101690009C2F9370011102C090E080E00E94D5273A
:1016A00072CF8D2F9C2F9370011102C090E080E0CB
:1016B0000E94BF2768CF8D2F002329F00E942B188E
:1016C0000E94161960CF0E949318FACF8C2F837056
:1016D00079F5011158CF4D2F429546954770440F2B
:1016E000440F8D2F8F70042E01C0880F0A94EAF7E3
:1016F0002D2F2071D4FF07C02FE030E001C0220F52
:101700004A95EAF72095C695C695C370822BC230DC
:1017100049F058F4C13019F00E94120D34CF0E94E4
:101720000C0D31CF0E94180D2ECF0E94090D2BCF2A
:101730008695002311F08C2F8170882309F423CF24
:101740004D2F429546954770440F440F8D2F8F7053
:10175000042E01C0880F0A94EAF72D2F2071D4FFC0
:1017600007C02FE030E001C0220F4A95EAF720952C
:10177000C695C695C370822BC23049F058F4C1306B
:1017800019F00E94600DFFCE0E945A0DFCCE0E94FF
:10179000660DF9CE0E94210DF6CECF70002329F000
:1017A0008C2F0E94350D8D2F16CF8D2F0E94210A70
:1017B0008C2F0E94410DE7CED23F51F160F4D03F13
:1017C000B9F0D13F81F0002309F45AC0F11090CE56
:1017D0008C2F8F7121C0D33F11F1D43FA1F780919D
:1017E000DA0382FD26C08C2F8F71002311F314C001
:1017F000002349F084E08F1508F4C5CE8C2F8F713B
:101800000E944E0DC0CE95E09F1508F4BCCEF6CFD9
:101810008C2F8F710111CDCF0E94350DB4CE0023D6
:1018200029F08C2F8F710E942C0DADCE0E94280DB7
:10183000AACE0023C1F00E941F11843041F40E94FF
:1018400006128C2F8F710E94410DE12C9CCEE4E09A
:10185000EF15D8F3CF718C2F0E94350D63E08C2FDC
:101860000E94E811F2CFF4E0FF1530F40E94061256
:1018700064E08C2F8F71F4CF81E00E941012E5CFCD
:10188000FF2059F0D93309F0F6CE2FEF37EE83E081
:10189000215030408040E1F7ECCE8C2F8F7189CF02
:1018A0000F931F93CF93DF93EC01688179818A8135
:1018B0000E94320E8C010E946C0D0E94080DB8012E
:1018C000CE010E94280ADF91CF911F910F910895B8
:1018D000CF93DF93EC018B819C81892B29F0888148
:1018E000998189238F3F51F4DF91CF910895CE01E3
:1018F0000E94500CCE010E940D08F6CFCE010E942E
:10190000BB088111F4CF0E943911882369F38A81C1
:10191000882351F38091DA0382FFE6CF82E00E94B0
:101920001012E2CF882321F00E9453110E949C11D3
:101930000895882321F00E9459110E949C11089556
:1019400090E080E00E94BF2790E080E00E94D527D1
:101950000E9460110E949C110E94B4190E941619E5
:1019600008950E9400110E94A00C08950E94501139
:101970000E94B10C089592959F70963091F058F4A2
:10198000925F9F70923058F4803F19F030F4883E97
:1019900030F481E008959A5FF4CF843FD1F380E082
:1019A0000895883EB0F3813FD1F7F3CFFC018381E6
:1019B0009481892B29F08081918189238F3F11F4B3
:1019C00080E00895808191810E94270E0E94BB0CC7
:1019D0000895A5E0B0E0EFEEFCE00C9447322596C8
:1019E000E2E00C946332A6E0B0E0E9EFFCE00C9496
:1019F00047322696E2E00C94633208950E94FD0C73
:101A000008950E94FE0C8093EE020E94A00C08959F
:101A100008950E94010D08959091EE02892B0E9475
:101A2000010D08959091EE0289230E94010D089501
:101A30009091EE0289270E94010D08950E94590796
:101A400008950E941E0D8093ED020E94A00C08953F
:101A500080E00E94210D089591E001C0990F8A95C0
:101A6000EAF7892F0E94210D089521E030E001C09E
:101A7000220F8A95EAF78091ED02822B0E94210DB8
:101A8000089521E030E001C0220F8A95EAF7209501
:101A90008091ED0282230E94210D089521E030E023
:101AA00001C0220F8A95EAF78091ED0282270E94F9
:101AB000210D08959091ED02892B0E94210D08952A
:101AC0009091ED0289230E94210D08959091ED02DD
:101AD00089270E94210D08950895262F277091E0EF
:101AE00001C0990F2A95EAF723E0769567952A9524
:101AF000E1F7FB01EE0FFF1FE60FF71FE40FF51FE5
:101B000050E040E0682F70E08191DF0111979B0168
:101B1000042E02C0369527950A94E2F7217021958C
:101B20002827292328272C934F5F5F4F43305105E7
:101B300059F70895A82FA77023E0969587952A95C1
:101B4000E1F7FC01EE0FFF1FE80FF91FE60FF71F8B
:101B500050E040E080E0219130E00A2E02C036954E
:101B600027950A94E2F721703327042E01C0220F33
:101B70000A94EAF7822B4F5F5F4F4330510559F7C4
:101B80000895282F862F903F79F0943070F42C30F0
:101B900058F4622F70E02CE0929F600D711D1124AB
:101BA0004BED52E00E946D0D08959C5F9230E0F77E
:101BB000622F70E048ED52E0F5CF903FC9F09430CD
:101BC00080F48C30A8F4282F30E06BED72E0A9018E
:101BD000ECE09E9F400D511D1124CA010E949A0DF8
:101BE00008959C5F923020F468ED72E090E0F6CFAB
:101BF00080E00895CF92DF92FF920F931F93CF93CF
:101C0000DF936C010091ED028091EE02082BC7E09A
:101C1000D0E010E0FC2EC8010C2E02C095958795EF
:101C20000A94E2F780FD0CC02197A0F7F12C8F2DCC
:101C3000DF91CF911F910F91FF90DF90CF9008958A
:101C4000B6018C2F0E94EB14019771F3F0CFCF9364
:101C5000DF93EC010E94FA0DBE010E94EB14DF91AC
:101C6000CF9108951F93CF93DF93EB019091D7020B
:101C7000992339F0CB010E94270EDF91CF911F915C
:101C80000895882369F0CB010E94FA0D182F682F60
:101C9000CE010E94C10DBE01812F0E94EB14EDCF39
:101CA000CB010E94DD0D182FF6CF1F93CF93DF934A
:101CB000C091EF0216E08091F0028C1304C0DF9116
:101CC000CF911F910895D0E01C9FF0011D9FF00D52
:101CD0001124EF50FD4F40815181628173818481D5
:101CE00095810E94F30C2196C770E5CF40912103A6
:101CF0005091220360912303709124038091250366
:101D0000909126030E94F30C08951F93CF93DF93C5
:101D100080912603807F09F049C0809123038823A6
:101D200009F444C08091EF02C091F0026091210358
:101D300070912203A0912403B0912503D62FD723BD
:101D400016E0C81799F190E0109711F0DF3F19F4F1
:101D500001968770F6CF189F9001199F300D1124BE
:101D6000F901EF50FD4F41814713F2CF40814613F7
:101D7000EFCF42814111ECCF438154814A1B5B0B71
:101D8000483C510528F7809126038F70806180932D
:101D90002603F901EA50FD4F80818F7080618083B6
:101DA00081E293E00E94680C0E94550EDF91CF9172
:101DB0001F910895A1E1B0E0E0EEFEE00C943F3207
:101DC0008C0185E0F801DE011D9601900D928A9547
:101DD000E1F7F801E28081E2C82E83E0D82E60911D
:101DE0002403709125036115710509F44EC190918A
:101DF000210320912203892F82238F3F09F445C1BB
:101E000040815181A380B480F0902303F501E61B4B
:101E1000F70BFF2009F4EAC080912603382F307FAA
:101E2000E83CF10508F0A3C031116DC0FE2C25136C
:101E300016C0941314C0E11012C08F70806180939B
:101E400026030E94760EC6010E94680C809126032C
:101E5000F80185838F2D6196EAE00C945B32A11422
:101E6000B10429F0842F85238F3F09F027C180E03A
:101E7000F82FF170DF2E80FF3CC08091EF0220919F
:101E8000F00236E0821315C04D875E878D859E85F2
:101E90000E94270E292F22952F702230F0F0243037
:101EA00018F59F70F1F0F8019581907FD1F4D12C55
:101EB0001EC090E0389FF001399FF00D1124EF50C3
:101EC000FD4F6181651306C06081641303C06281A8
:101ED000E6120FC001968770D5CF9F7011F088234E
:101EE00031F3805E883018F3C8010E94680CFD2C25
:101EF000B1CFEE2009F4AECF8091260381608093AC
:101F00002603F12CA7CF251306C0941304C0F801B3
:101F1000EE2009F487C0C8010E94D60C882319F16D
:101F2000EE2009F180912603803270F02091210388
:101F30003091220338872F831986BB86AA868C8727
:101F4000CE0107960E94680C86E0F801A1E2B3E09A
:101F500001900D928A95E1F70E94850E0E94760EFF
:101F6000FF24F39477CFC8010E94680CF9CF311198
:101F700013C07A2DB98AA88A6E2D89890E94E90C2E
:101F800081E293E00E94680C86E0F60111928A9546
:101F9000E9F70E94760EB5CF25130FC094130DC03C
:101FA000E1100BC0F8018583C8010E94680C86E02F
:101FB000F60111928A95E9F74DCFC8010E94D60C1F
:101FC000882389F2EE2079F280912603803208F48A
:101FD000BBCF20912103309122033A8329831B82B6
:101FE000BD82AC828E83CE010196ACCFE83CF10578
:101FF00008F03EC0FE2CEE2009F4B5CF25132AC010
:10200000941328C08091260380FD1BC0982F907FD9
:10201000C1F0F8018583903F31F0982F907F905F59
:102020008F70892B8583C8010E94680C86E0F801B7
:10203000A1E2B3E001900D928A95E1F70E94760E3D
:1020400009CF86E0F801A1E2B3E001900D928A95F4
:10205000E1F700CFC8010E94D60C811175CF8091A5
:102060002603816080932603C8010E94680CF2CE8B
:102070007A2DB98AA88A6E2D89890E94E90C86E09A
:10208000F60111928A95E9F7D9CFEE2009F46BCFCA
:10209000C8010E94D60CF82E882309F464CF86E08C
:1020A000F801A1E2B3E001900D928A95E1F781E297
:1020B00093E00E9470090E94850EC0CF81E08E25BA
:1020C000D7CEACE0B0E0E7E6F0E10C9446324F83C7
:1020D000588769877A878B879C87CE0107960E94ED
:1020E000DA0E882369F08A859B85892B39F04F8128
:1020F0005885842F85238F3F09F06BC016E05FC0A1
:1021000086E0FE013796DE01119601900D928A95C8
:10211000E1F78A859B85892B89F38F8198858923AF
:102120008F3F61F32091F00230E0C9010196877082
:1021300099274091EF024817190671F40E94B60CD6
:102140001092F0021092EF0286E0E1E2F3E0DF018C
:102150001D928A95E9F7D2CF96E0929FD001939F86
:10216000B00D1124AF50BD4FFE01319601900D927C
:102170009A95E1F78093F0020E94550EBFCF819FA0
:10218000C00111248F509D4F0E94DA0E8823E9F080
:10219000E091EF021E9FF0011124EF50FD4F4081AE
:1021A000518162817381848195810E94F30C8091B9
:1021B000EF0290E00196877099278093EF0280915B
:1021C000EF029091F0028913DACF2C96E3E00C94A1
:1021D000623269857A858B859C850E94F30C8ECF4F
:1021E000682F80910001909101010E947F2808953D
:1021F000682F80910001909101010E948D2808951F
:1022000080910001909101010E949B280895809186
:102210004C0308950E945D2920914A0330914B039D
:10222000821B930B9C0181E02838334108F480E045
:1022300008958091490385958595859508958091A8
:102240004903877008950E945D29209147033091CA
:102250004803821B930B8838934148F080914903CF
:1022600082FB882780F991E089278170089580E0BA
:10227000FCCF90914903977081E009F480E00895C4
:1022800080916F03089590916F03892B80936F0362
:102290000895809590916F03982390936F0308950C
:1022A00010926F03089590916E03892B80936E03B3
:1022B0000895809590916E03982390936E030895EE
:1022C00010926E03089580914D03089508950E9421
:1022D0006611089590914C03981721F080934C0358
:1022E0000E946711089508950E9473110895CF9375
:1022F000C82F8091DA0382FF0FC080914D038C17A5
:1023000059F00E945D2990934B0380934A03C09338
:102310004D038C2F0E947411CF91089580914D032D
:10232000882349F010924D0310924B0310924A03F8
:1023300080E00E9474110895CF93DF93E091000133
:10234000F091010180916F038083E0910001F09191
:102350000101808190916E03892B808380914D03D0
:102360008823B9F00E940A1181110E948E11E09118
:102370000001F0910101808190914D03892B8083B0
:1023800080910001909101010E94EB2781110E9430
:102390008E11C0910001D091010140E250E067E24E
:1023A00073E0CE010E948B32892B59F080E2FE014E
:1023B000A7E2B3E001900D928A95E1F7CE010E9469
:1023C0009727DF91CF91089508950E94E411089511
:1023D0009091DA0392FF17C098E0899F9001112431
:1023E000622B609349030E94350D0E945D299093F2
:1023F000480380934703809149038595859585958A
:102400000E94E51108950E94350D08951092490328
:10241000109248031092470380E00E94E51108954E
:10242000909149038095892380934903282F277031
:1024300091F4282F082E000C330B9217130659F035
:102440009091DA0392FF07C08595859585950E9446
:10245000410D0E94061208959091DA0392FB222703
:1024600020F9281769F080FB92F99093DA038091A4
:10247000D9039091DA030E947E1282E00E9410122A
:1024800008958091DA0382FB882780F991E08927FB
:102490000E942C12089581E00E942C12089580E081
:1024A0000E942C1208956FEF7FEF90E080E00E9471
:1024B000D432089590E080E00E94B032883E9E4F72
:1024C00019F40E94D21A089580E0089582E090E005
:1024D0000E94A832089583E090E00E94A8320895F7
:1024E000CF9384E090E00E94A832C82F82E290E06F
:1024F0000E94A832982F8C2FCF910895CF93C92F87
:10250000682F84E090E00E94B6326C2F82E290E067
:102510000E94B632CF910895AB01BC018FE090E0EC
:102520000E94C8320895AB01BC0183E190E00E9493
:10253000C832089560E070E0CB010E9493120895C4
:1025400060E070E0CB010E948C120E949A12089504
:1025500068EE7EEF90E080E00E94D43260E082E09E
:1025600090E00E94B63260E083E090E00E94B632D4
:102570001092EE0260E084E090E00E94B63264E0E7
:1025800082E290E00E94B63260E085E090E00E9436
:10259000B63260E086E090E00E94B6326FEF87E0EE
:1025A00090E00E94B63240E050E0BA0188E090E04E
:1025B0000E94C83260E08DE090E00E94B63240E0B8
:1025C00050E0BA0188E190E00E94C83260E087E103
:1025D00090E00E94B63240E050E0BA018CE190E019
:1025E0000E94C83270E060E080E290E00E94D43245
:1025F00040E050E0BA0188E190E00E94C83280E0FB
:102600000E94EB1A0E941A1B0E94A01208950E94B9
:10261000A8120895682F8EE090E00E94B6320895C7
:102620000E946929609382037093830380938403DB
:102630009093850360937E0370937F038093800360
:102640009093810308950E94692960938203709397
:102650008303809384039093850360937A0370933C
:102660007B0380937C0390937D03089508950895E0
:102670000E943713089508950E943B13089584EE35
:102680009BE20E9480270E94791C0E9436130E94C0
:102690003813089581E008950E944A13089508951B
:1026A00008950E944F130E94501308950E94EF1541
:1026B0000E94FF0808950E9454290E942A1B0E942C
:1026C00008170E9456130E94C2220E943C130895CC
:1026D000AAE0B0E0EEE6F3E10C943C320E941E1753
:1026E00022E7822E23E0922E640110E0F601E190B1
:1026F000F1906F01812F0E9412161F5F143009F4B0
:1027000049C0E816F90691F38091860381FD0E9485
:102710001B160E944C13782E10E0812F0E94121677
:102720007C01F401A190B1904F018A159B0561F1E4
:10273000A826BF2400E0CC24C394D12CC5018C2151
:102740009D21892BC1F07720B1F00E831F8321E0FA
:10275000C7018C219D21892B09F420E028870E9444
:102760005D298160782F9A8789874E815F8168858E
:102770008A850E942B090F5FCC0CDD1C0C30F1F612
:10278000F4013297F182E0821F5F143031F60E942B
:10279000101322C0E816F90609F0B6CF0E945D2991
:1027A0008C01809170039091710308171907A1F0B3
:1027B0008FEF89838A831B820E945D298160782F35
:1027C0009D838C8349815A816B818D810E942B0965
:1027D00010937103009370030E94E12281110E9403
:1027E00023130E94D6190E9412092A96EDE00C9438
:1027F0005832CF93DF930E94F014EC01811521E54C
:10280000920708F042C0811530E5930708F09FC099
:10281000883E910530F5803E910508F094C0883AD5
:10282000910588F4853A910508F086C081309105BC
:1028300009F489C0009709F486C0049708F083C0A2
:10284000D0E0C0E080C08F3B9105D0F7C85AD0E0FF
:10285000CC0FDD1FCE5ADE4F0990D881C02DD46435
:1028600072C0811540E2940750F4C11581E0D80789
:1028700008F069C0C03FD10518F3D06564C0811568
:102880009044F0F2DF70D06A5EC0811535E59307A1
:1028900018F5811544E5940708F086C0C11583E555
:1028A000D80708F06DC0C11522E5D20708F463C04F
:1028B000CE018370992721E030E002C0220F331F40
:1028C0008A95E2F7C695C69580E2C89FE00111247B
:1028D000C22BD32BDC6837C0811539E59307A8F4E8
:1028E000811548E5940708F064C0C11586E5D8074E
:1028F00008F0A6CF8C2F0E949215C82FD0E0DC2FB5
:10290000CC27CC27DF71D0621EC081152AE5920743
:1029100008F454C090568115904208F091CF8D2F45
:102920008F710E94921590E0982F882788279F71B9
:102930009C012C2BE901E7CFC55AD0E0C058DE4FEF
:10294000C881D0E0D064CE01DF91CF910895282FC7
:1029500026952695237040E2249F900111248370D0
:10296000C1E0D0E002C0CC0FDD1F8A95E2F7C22B98
:10297000D32BDD68E8CFDC2FCC27C16FD06AE3CF43
:10298000CE018370992721E030E002C0220F331F6F
:102990008A95E2F7C695C69540E2C49FE0011124EE
:1029A000C22BD32BDA68CFCFD82FCC27C46FD06AF5
:1029B000CACFD82FCC27C06FD06AC5CF8F700E94E6
:1029C000921534E0D695C7953A95E1F7CF709C2FD4
:1029D000EC01D069B8CF0E94491F0E94F9130895F5
:1029E00082389105B9F1B0F48133910509F47DC0C5
:1029F00048F48932910509F46DC08A32910509F4D1
:102A00007BC008958533910509F45FC08933910532
:102A100009F10895833E9105D9F138F4803E91057E
:102A200029F1823E910579F10895863E9105D9F10B
:102A3000873E910509F43EC0843E910541F5209101
:102A4000DA0321FF24C08091D90384FD19C087EEE9
:102A500090E008952091D903237009F05AC0209185
:102A6000DA0323FF14C089E290E008952091D9038E
:102A700020FD38C03091DA0330FF09C024FF43C085
:102A800090E080E008952091D90322FDF7CF0895CA
:102A90002091D90322FD3AC03091DA0330FD39C0CC
:102AA00024FFF5CFEDCF2091D90323FFF0CF24FDF4
:102AB000E7CFCDCF2091D90323FD2EC03091DA038B
:102AC00031FFEECF84EE90E008952091D90325FFE9
:102AD000DECFC9CF2091D90325FD21C02091DA0393
:102AE00023FFD5CF89E390E0D2CF2091D90326FFF1
:102AF000CECF8AE290E008952091D90326FFC7CF78
:102B000081E390E0089583EE90E0089582EE90E0F6
:102B1000089580EE90E0089586EE90E0089585E3B4
:102B200090E008959091D90392FF06C0282F287154
:102B30002830F9F4877F846093FF06C0282F28711E
:102B40002831F1F4877E84612091DA0320FF06C0EA
:102B5000382F38713830D9F4877F816021FF06C063
:102B6000282F28712831D1F4877E816194FD877EDA
:102B70000895282F24712430F9F68B7F8860DCCFEC
:102B8000282F2471243101F78B7E8861DDCF382F07
:102B90003171313019F78E7F8860E0CF282F217195
:102BA000213121F78E7E8861E1CF0E945312089572
:102BB0000E941E178FE39CE90197F1F700C0000007
:102BC0000E941E1780E00E94121680FF04C00E941F
:102BD000D5150E94A82908950E94D81508950E942D
:102BE0005A12811102C00E9407130E94661280933C
:102BF00086030E9470129093DA038093D9030E9497
:102C0000EC150E946B120E94090D8091ED020E944A
:102C10001E0D089508950E940A16089508950E94B1
:102C20000E160895E82FF0E0EE0FFF1FED51FC4F58
:102C3000808191810895B0E0A0E0E1E2F6E10C949A
:102C400041328CE492E00E94B70683EEE82E83E0E6
:102C5000F82ED0E0C0E097E4C92E92E0D92E0EE322
:102C600012E0DF93CF93DF92CF920E94500784E46B
:102C700092E00E94B706F701819191917F010E9435
:102C8000E9089F938F931F930F930E9450078CE343
:102C900092E00E94B70621968DB79EB708960FB6B0
:102CA000F8949EBF0FBE8DBFC430D105D1F6CDB70D
:102CB000DEB7E8E00C945D3280EA8A95F1F708957A
:102CC00000C008950E945C160895F894E82FE295DC
:102CD000EF70F0E031A1282F2F7081E090E001C06B
:102CE000880F2A95EAF7982F9095932391A392A1A4
:102CF000892B82A378940895CF93DF9383E90E9470
:102D0000651682E90E94651681E90E94651680E9D0
:102D10000E946516C3E8D1E089918F3F11F00E94AF
:102D2000651681E0CF38D807B9F7DF91CF910895C4
:102D3000AF92BF92DF92EF92FF920F931F93CF93C8
:102D4000DF938C01D62EC62FD0E0CE0181579E4F47
:102D50007C01FC0120812F3F09F44DC0F894E22F43
:102D6000E295EF70F0E031A12F7081E090E001C0BA
:102D7000880F2A95EAF7932F982B91A392A180951B
:102D8000892382A378940E946016E3E8F1E04FE87B
:102D900051E021E030E0B12CA12C61916F3FA9F10D
:102DA000A62FA295AF70B0E090968C9190E06F70D6
:102DB00002C0959587956A95E2F780FD26C0C90106
:102DC000A82AB92A220F331F4E175F0731F7F701E0
:102DD00080818F3F11F00E94651661E0A114B1045B
:102DE00009F460E08D2D0E946216CC0FDD1FC00F2C
:102DF000D11FB982A882DF91CF911F910F91FF90CF
:102E0000EF90DF90BF90AF90089590E080E0D8CF32
:102E10000E947C1688E0E3EEF3E0DF01982F1D921C
:102E20009A95E9F7EBEDF3E0DF011D928A95E9F75A
:102E300084E00E9459170E9440080895A8E0B0E07D
:102E4000E4E2F7E10C9444328E010F5F1F4F88E0FB
:102E5000F80111928A95E9F7F12C6F2DC8010E94B3
:102E60009816F394F4E0FF12F8CF48E050E0B80170
:102E70008BED93E00E948B3221E0009709F420E073
:102E8000892B41F088E0F801ABEDB3E001900D92A1
:102E90008A95E1F744E063EE73E08BED93E00E94E6
:102EA0005A17182F0E944308812F2896E5E00C94AA
:102EB00060320895CF92DF92EF92FF921F93CF93EB
:102EC000DF936C017B01C42F222349F081E08093C2
:102ED00089030E945D299093880380938703109152
:102EE000890311110AC010E0812FDF91CF911F914A
:102EF000FF90EF90DF90CF9008958091870390919D
:102F000088030E947529059770F3D0E0CC0FDD1F70
:102F1000AE01B601C7010E948B32892B41F0AE0190
:102F2000B601C7010E94983210928903DDCF10E0EC
:102F3000FBCF0E94602C0E945B130E946D2C0895B1
:102F40000E94722C0E9468130E94902C08950E9487
:102F5000F6280E94462C0E943F130E9499170E9457
:102F6000A0170E945113FBCF8091900380FF0DC0EA
:102F70006091070170E0660F771F6038710570F58A
:102F80006115710569F1862F089581FF07C0609171
:102F9000070184E0689FB0011124EFCF6091070121
:102FA00082FD0AC080918F038823A9F02091060139
:102FB00060910701821710F088E0ECCF869FC00176
:102FC000112433E0880F991F3A95E1F7622F70E0E2
:102FD0000E941632D2CF68E070E0D5CF8FE7089517
:102FE00081E008958091900380FF0CC060910301FF
:102FF00070E075956795759567956115710549F14F
:10300000862F089581FF06C06091030170E07595D9
:103010006795F3CF6091030182FD0BC090918E0301
:103020009923A1F06091020180910301961738F075
:10303000682F70E06038710500F38FE70895899F6D
:10304000C001112470E00E941632F4CF61E070E0FC
:10305000D7CF81E00895803F31F40E94B417819565
:10306000809394030895813F19F40E94B417F8CF18
:10307000823F31F40E94B4178195809393030895A1
:10308000833F19F40E94B417F8CF893F29F40E94B6
:10309000F2178093950308958A3F21F40E94F21756
:1030A0008195F7CF8B3F31F40E94F2178195809381
:1030B000960308958C3F19F40E94F217F8CF843FCD
:1030C00031F4809192038160809392030895853F4B
:1030D00021F4809192038260F7CF863F21F48091A2
:1030E00092038460F1CF873F21F48091920388603E
:1030F000EBCF883F21F4809192038061E5CF8D3F33
:1031000031F48091900381608093900308958E3F05
:1031100021F4809190038260F7CF8F3FB9F78091BF
:1031200090038460F1CF90919303803F59F4809194
:10313000940387FF0DC01092940391110BC010925D
:103140008F0308C0813F81F48091940318169CF38B
:10315000992381F08091950390919603892B09F032
:1031600064C010928E030895823F49F497FFF0CF18
:1031700010929303809194038111ECCFE0CF833FB1
:1031800019F41916ACF3E4CF20919503893F29F483
:103190001216F4F610929503DBCF8A3F19F427FF3D
:1031A000D7CFF8CF209196038B3F29F427FFD0CFBC
:1031B00010929603CDCF8C3F19F41216CCF3C8CFE2
:1031C000843F31F4809192038E7F80939203C0CF2D
:1031D000853F21F4809192038D7FF7CF863F21F4C4
:1031E000809192038B7FF1CF873F21F480919203EE
:1031F000877FEBCF883F21F4809192038F7EE5CFCC
:103200008D3F31F4809190038E7F80939003A0CF07
:103210008E3F21F4809190038D7FF7CF8F3F09F08F
:1032200097CF809190038B7FF0CF08958091860394
:1032300083FF7EC08AE892E00E94B70680919203E5
:103240001F928F9385E892E09F938F930E9450077F
:1032500083E892E00E94B70680919303282F082EFE
:10326000000C330B3F938F9380E892E09F938F93F2
:103270000E9450078EE792E00E94B7068091940367
:10328000282F082E000C330B3F938F938BE792E08F
:103290009F938F930E94500789E792E00E94B706A0
:1032A00080919503282F082E000C330B3F938F93AA
:1032B00086E792E09F938F930E94500784E792E005
:1032C0000E94B70680919603282F082E000C330B1E
:1032D0003F938F9381E792E09F938F930E945007D3
:1032E0008EE692E00E94B70680918F031F928F9323
:1032F0008BE692E09F938F930E94500789E692E0BD
:103300000E94B706809190031F928F9386E692E009
:103310009F938F930E94500783E692E00E94B70626
:103320008DB79EB74C960FB6F8949EBF0FBE8DBF5B
:103330000E945D299C019091930380919403982BA6
:1033400021F030938D0320938C039091950380910D
:103350009603982B21F030938B0320938A0381E905
:1033600093E00E94B127089586E0E1E9F3E0DF01F0
:103370001D928A95E9F710928F0310928E03109296
:1033800090030895FC01828181110EC08381811117
:103390000BC08481811108C091E08581811101C039
:1033A00090E0892F8170089581E0FCCFA6E0B0E025
:1033B000ECEDF9E10C94463286E0E1E9F3E0DE0160
:1033C000119601900D928A95E1F710929303109255
:1033D000940310929503109296038B819C81892B04
:1033E00089F080918C0390918D030E947529AC0126
:1033F00090918F039923C9F18091080184171506D4
:1034000008F440C08D819E81892B91F080918A03C0
:1034100090918B030E947529AC0190918E039923A2
:1034200009F471C0809104018417150608F479C06D
:10343000BE016F5F7F4F81E993E00E94AD2881114B
:1034400005C081E993E00E94C21981110E941619FA
:1034500086E0FE013196A1E9B3E001900D928A95D4
:10346000E1F72696E3E00C946232209109018AE0AC
:10347000289F900111242417350720F69F5F909311
:103480008F0302C09F3FD1F71B81112359F00E9487
:10349000B4179FEF11160CF491E0899F802D112431
:1034A000809393031C81112359F00E94B4179FEF5E
:1034B00011160CF491E0899F802D112480939403C0
:1034C00030919303332309F49DCF20919403222359
:1034D00009F498CF45EB3403C0011124992359F026
:1034E0009093930345EB240390011124332339F087
:1034F0003093940387CF81E080939303F3CF81E0EF
:10350000809394037FCF209105018AE0289F90014A
:1035100011242417350708F08BCF9F5F90938E03FB
:1035200002C09F3FD1F71D81112359F00E94F2176D
:103530009FEF11160CF491E0899F802D1124809348
:1035400095031E81112359F00E94F2179FEF111667
:103550000CF491E0899F802D112480939603309183
:103560009503332309F464CF20919603222309F4B1
:103570005FCF45EB3403C0011124992359F0909398
:10358000950345EB240390011124332339F0309344
:1035900096034ECF81E080939503F3CF81E0809333
:1035A000960346CF83E290E00E94A832843489F4E7
:1035B00084E290E00E94A832873159F485E290E0DD
:1035C0000E94A83291E0853409F090E0892F817043
:1035D000089580E0FCCFCF93C82F6FEF811164E492
:1035E00083E290E00E94B6326FEFC11167E184E29E
:1035F00090E00E94B6326FEFC11165E485E290E081
:103600000E94B632CF910895089586E290E00E941C
:10361000A832682F70E090E080E008950895CF937D
:10362000C62F0E940E1B6C2F86E290E00E94B632DD
:10363000CF91089580E00E94EB1A60E070E0CB012A
:103640000E940F1B0E947B1E0E94C21F81E00E94ED
:10365000EB1A08950E94041B0E94051B0E940E1B7A
:103660000E94D21A811102C00E941A1B0895CF93A2
:10367000FB01C281CC2309F19C0122513F4520313D
:10368000310520F582510E94D21FC0E08C2FCF91CE
:10369000089581E00E94350D43E062E081E00E94E0
:1036A0003608F3CF81E00E94410D43E062E081E003
:1036B0000E943608EBCF82E0F6CF8031FFE59F070E
:1036C00089F381319F45B9F3C1E0E0CF8031EFE567
:1036D0009E07F9F281319F45C9F682E0DBCF2FEFDB
:1036E000FC0120830895EF92FF920F931F93CF93D5
:1036F000DF93EC01062F88812091990330919A0382
:10370000232B79F08E3F09F057C08981833020F058
:103710008550833008F050C0602FCE010E947A1C83
:103720004BC08C3009F4A0C0D0F4843009F483C0BD
:1037300060F4823009F449C008F070C08130C9F1EA
:10374000602FCE010E946F1B37C0863009F489C0FC
:1037500008F47CC08A30A0F78FEF88832DC08031B9
:1037600009F49FC0D8F48E3009F48AC008F480C0F0
:1037700080910A0190910B01892BF1F06B8170E02F
:103780006D317105C8F489819A81AE014C5F5F4F3C
:103790009827892798270E949D1F0EC0823109F41F
:1037A00086C008F481C0833109F492C08E3F41F68F
:1037B000B3CF198289E08A83602FCE010E945D2AEF
:1037C000CDB7DEB7E6E00C945F328981823071F0CC
:1037D000833079F0813009F0B3CF0E9469290E94CB
:1037E00030326A837B838C839D83E6CF0E94051BE6
:1037F000F6CF80910A0190910B01892BE9F27E01AD
:1038000010E0812F0E941216F701928383831F5FBD
:10381000F2E0EF0EF11C1430A1F7CECF8981823097
:1038200009F08ECF6A817B818C819D810E9430322C
:103830000E940F1BC1CF4B816A8189810E94DF1DCD
:103840009827892798279D838C83B6CF2C813D812B
:103850003227232732274B816A8189810E94011EEA
:10386000ABCF0E947B1EA8CF0E94731F8983A4CF79
:103870000E94751F9827892798279A8389839CCF50
:103880006B8170E06D31710508F096CF89819A8166
:10389000AE014C5F5F4F9827892798270E94781FB9
:1038A0008BCF0E94C21F88CF0E94CD1DDFCF6B81BE
:1038B00070E06D31710508F07FCF89819A81AE018A
:1038C0004C5F5F4F9827892798270E94F71E74CF77
:1038D0006B8170E06D31710508F06ECF89819A813E
:1038E000AE014C5F5F4F9827892798270E941B1FC6
:1038F00063CF0895A8E0B0E0E0E8FCE10C94433227
:103900008C01603269F5DC011196EC911197EE3073
:1039100038F5F0E0E850FD4C0C942A3288E0E9E1FB
:10392000F1E0DE01119601900D928A95E1F780E2B7
:10393000F80111928A95E9F785E0D8018C931196E8
:103940001C92119712961C92129713961C92139721
:1039500088E0FE013196149601900D928A95E1F768
:103960002896E6E00C945F328CE7F801808381E0D2
:10397000818312821382F4CF13968C911397682F50
:1039800070E0762F662712968C91860F972F911DE7
:10399000092E000CAA0BBB0B25E0880F991FAA1F4C
:1039A000BB1F2A95D1F7AC01BD01405E5F4F6F4F41
:1039B0007F4F481759076A077B0790F28C37E1E081
:1039C0009E07A105B10560F64D37F1E05F0761057F
:1039D000710520F04CE751E060E070E0481B590BA6
:1039E000BC0163557D4FC8010E948232B9CF129647
:1039F000FC9012971396EC9040E06E2D8F2D0E9454
:103A00001D1E982789279827F8019183808341E01C
:103A10006E2D8F2D0E941D1E982789279827D8016B
:103A200013969C938E9312979BCFFC012581368130
:103A30003227232732272115FCE53F0741F48091E7
:103A40000A0190910B01892B11F430E020E041E054
:103A5000D80114968C91811101C040E0F801638176
:103A600082810E94501E7CCF40E250E06FEF70E0F8
:103A70000E94A13280910A01D8018C938091990310
:103A800011968C936DCF81E090E090939A03809390
:103A9000990382E390E090939803809397030E94A8
:103AA0005D295ECF80910A01F8018083809199039E
:103AB000818380919703828353CF40E250E06FEF80
:103AC00070E00E94A1324CCF12968C911297811116
:103AD00047CF80E2F80111928A95E9F71C9211967E
:103AE0001C92119712961C923BCFA5E0B0E0EBE739
:103AF000FDE10C9447329093EC038093EB03811526
:103B000020E2920730F40E949E072596E2E00C9492
:103B1000633280EF89838A8381E08B830E945D29F1
:103B20008160782F9D838C8349815A816B818D813F
:103B30000E942B09EACFA5E0B0E0E1EAFDE10C9498
:103B400047329093EC038093EB03811520E29207B8
:103B500030F40E94B4072596E2E00C94633280EFC3
:103B600089838A831B820E945D298160782F9D83CF
:103B70008C8349815A816B818D810E942B09EBCF07
:103B8000CF93DF93EC010E94751DCE010E949B1D17
:103B9000DF91CF91089581E0089584E0089550E089
:103BA000440F551F98E1699F400D511D112490E667
:103BB000899F400D511D1124CA01879608950F93C6
:103BC0001F93CF93DF938430C8F46430B8F44C3043
:103BD000A8F40E94CF1D8C010E94A832C82FD0E00B
:103BE000DC2FCC27C80101960E94A8329E01282B09
:103BF000C901DF91CF911F910F91089590E080E06E
:103C0000F8CF0F931F93CF93DF93122F032F84309E
:103C100078F4643068F44C3058F40E94CF1DEC0105
:103C2000602F0E94B632612FCE0101960E94B632FB
:103C3000DF91CF911F910F910895FF920F931F93E2
:103C4000CF93DF93F42E843040F5611126C024E039
:103C5000829F8001112409551E4F82E090E0442389
:103C600011F090E080E0800F911F0E94A832C82FD1
:103C7000D0E0DC2FCC2783E090E0FF2011F081E042
:103C800090E0800F911F0E94A8329E01282BC9014D
:103C9000CDB7DEB7E5E00C94603290E080E0F8CF7D
:103CA0000F931F93CF93DF93142F022F8430F0F4E0
:103CB00061111CC094E0899FE0011124C955DE4FB9
:103CC00082E090E0442311F090E080E0632F8C0FBD
:103CD0009D1F0E94B63283E090E0112311F081E035
:103CE00090E0602F8C0F9D1F0E94B632DF91CF9124
:103CF0001F910F910895B0E0A0E0E1E8FEE10C947F
:103D0000393260900A0170900B0181E090E090934D
:103D10000B0180930A019CEAA92E90E0B92E2EEAAD
:103D2000822E20E0922E3CEBC32E30E0D32ED0E04A
:103D3000C0E07601412C5C2E20C00E945F0721E08C
:103D400030E08C171D0641F03CF0F801EE0FFF1F2C
:103D5000EE0DFF1D25913491402F642D852D0E947D
:103D6000011E0F5F1F4F0C30110539F788E1E80E77
:103D7000F11C439484E0481651F110E000E0DDCFDF
:103D8000F5012591349141E060E0852D0E94501E9F
:103D9000F4012591349140E060E0852D0E94501E91
:103DA000219684E0A80EB11C84E0880E911C80E668
:103DB000C80ED11CC430D10509F0BBCF70920B01E5
:103DC00060920A01CDB7DEB7E0E10C9455320E9453
:103DD00061078C171D0609F09CF621E030E041E0F8
:103DE00060E0852D0E94501E21E030E0D4CFEF929C
:103DF000FF920F931F93CF93DF93EC018A017C0115
:103E0000E60EF71ECE018796CE15DF0529F4CDB755
:103E1000DEB7E6E00C945F32C03821E0D20740F410
:103E20000E94A832F80180830F5F1F4F2196EACFCE
:103E3000F8011082F9CFB0E0A0E0E1E2FFE10C94DC
:103E400041328C016A018038914080F480E891E031
:103E5000801B910B8617970748F07801E60EF71E36
:103E6000E801CE018796CE15DF0529F4CDB7DEB780
:103E7000E8E00C945D32C03821E0D20740F4FE0146
:103E8000E01BF10BEC0DFD1D60810E94B632219606
:103E9000E8CF462F672F2091990330919A03232B67
:103EA000F9F4703F39F4403FD9F48091EB039091DD
:103EB000EC0308958430A0F4743028F44C3080F47E
:103EC0000E94DF1D08957D3F39F4411109C041E092
:103ED00060E00E941D1E08957C3F11F44423C1F34D
:103EE00090E080E0089580E1089589E492E00895EB
:103EF000EF92FF920F931F93CF93DF93EC018A0110
:103F00007C01E60EF71ECE0189549E4FCE15DF05CB
:103F100029F4CDB7DEB7E6E00C945F32C93422E075
:103F2000D20740F40E94A832F80180830F5F1F4F30
:103F30002196E9CFF8011082F9CFB0E0A0E0E3EAE2
:103F4000FFE10C9441327C016A018C01060F171FBE
:103F5000EC01CE0189549E4FC017D10729F4CDB78B
:103F6000DEB7E8E00C945D32C93422E0D20740F4B9
:103F7000FE01EE19FF09EC0DFD1D60810E94B632B5
:103F80002196E7CFCF93DF93C7EBD1E060E0CE017E
:103F90000E94B6322196C11584E0D807B9F7DF91A7
:103FA000CF910895A4E0B0E0E8EDFFE10C94403239
:103FB000F82E2FE0281708F4A5C08FEF93E00E9499
:103FC000A83281119FC007EB11E0F11036C01982B1
:103FD0001A821B821C82BB24BA9478015FEFE51A17
:103FE000F50AC8010E94A83289831A82882309F43D
:103FF00089C0813009F07FC0680182E0C80ED11C01
:10400000C7010E94A832E82E8A83882309F47AC067
:10401000C6010E94A832F82E8FEF8E0D8330D8F49F
:104020006801E3E0CE0ED11CFB82FF2021F0CE011F
:1040300001960E94B7228601D0CF011544E01407F3
:1040400009F460C0C8010E94A832811101C0FA942D
:104050000F5F1F4FBACF8BEF8E0D833030F5C80145
:104060000396FB826C01FF2031F36801F4E0CF0E70
:10407000D11C0E94A8328C838823E9F28B819C8119
:1040800081302FEF920710F0982F882746E0E41632
:1040900031F057E0E51631F00E94C01DCCCF0E94F0
:1040A000751DC9CF0E949B1DC6CF84E0E812C3CF07
:1040B0006801E4E0CE0ED11CC80103960E94A8322C
:1040C000FF2001F18823F1F08150990BB89E9001F7
:1040D000B99E300D11244F2D4150550BCA01820F4E
:1040E000931F019708F4A7CFEFE9FFE03197F1F7AD
:1040F00000C00000F6CF60E0CE0101960E94512280
:10410000670199CF2496E9E00C945C32CF93DF935A
:10411000EC01FB018281882309F464C1C330FDE511
:10412000DF07E0F5CA3F9CE5D90730F49E01225035
:104130003C4524313105D8F50E9470129093DA0382
:104140008093D903C231ECE5DE0709F41FC108F002
:104150006EC0C9308CE5D80709F4F2C008F03FC042
:10416000C530ECE5DE0709F4DBC058F5C3308CE55B
:10417000D80709F4CDC008F0CFC08091D903816081
:10418000C230DC4509F4AEC08091D9039091DA03C6
:104190000E947E120E94B60C80E009C0C53AEDE58F
:1041A000DE0751F238F4C1369DE5D90729F2DF91D7
:1041B000CF9108959E012D5A3D4523303105B8F722
:1041C000BBCF8091D9038062C730FCE5DF0709F4DB
:1041D00089C008F4B1C08091D903806483C0CD3018
:1041E0009CE5D90709F4BAC070F48091D9038E7F99
:1041F000CB30FCE5DF0709F475C008F4A7C0809157
:10420000D9038D7F6FC0CF309CE5D90709F4B6C0C4
:1042100008F4A8C0C031FCE5DF0709F4B3C0C13120
:10422000DC4509F0B1CF8091D9038F7B5BC0CF3FD4
:104230009CE5D90709F4B4C098F5CA3FFCE5DF074F
:1042400009F472C0B8F4C4319CE5D90709F4B6C0CA
:1042500008F4A2C0C531DC4509F096CF8091D9039E
:1042600082FB992790F921E0922790FB82F990FB3D
:1042700083F938C0CC3F8CE5D80709F477C008F43F
:1042800057C0CD3FECE5DE0709F474C08091DA0336
:104290008360CE3FDC4509F077CF8093DA0374CF9B
:1042A000C1368DE5D80709F496C068F4C130EDE554
:1042B000DE0709F48CC008F477C0C230DD4509F090
:1042C00063CF80E085C0CD3A9DE5D907E9F068F479
:1042D0009091D903892F8E7F90FF8160C53ADD458B
:1042E00009F052CF8093D9034FCFCE3A8DE5D8074E
:1042F00089F1CF3ADD4509F047CF9091DA03892F54
:10430000877F93FF8860C9CF8091DA038860C5CF2B
:104310008091D9038260E6CF8091D9038460E2CF97
:104320008091D9038860DECF8091DA038160B5CFB8
:104330008091DA038260B1CF8091D9038061D2CFBE
:104340000E94B60C8091D9038068CCCF8091D903AC
:104350008C60C8CF8091DA03877F9FCF8091D9038B
:104360008B7FC0CF8091D903877FBCCF8091DA0348
:104370008E7F93CF8091DA038D7F8FCF8091D90389
:104380008F7EB0CF8091D9038F7DACCF0E94B60CC9
:104390008091D9038F77A6CF8091D903837FA2CF55
:1043A0008091DA038C7F79CF8091DA03982F9095F2
:1043B00091708E7F892B90FB81F96FCF0E94B60C94
:1043C0009091D903892F97FB87F980588BCF81E093
:1043D0000E940A13D9CE9091D903892F8F7E94FF22
:1043E000806180CF81E0E3CEB0E0A0E0EAEFF1E2CF
:1043F0000C944232E82FF0E0E75DFB4FD490282F79
:1044000026952695269530E0F901E753FB4F049158
:10441000877010E0082E02C0159507950A94E2F700
:1044200001701127F901E754FB4FE490F12C082E9D
:1044300002C0F594E7940A94E2F791E0E922FF24A0
:10444000F901E755FB4FC491D0E002C0D595C7955F
:104450008A95E2F7C170DD270115110519F081EE8B
:104460000E947609E114F10419F086EE0E947609A3
:104470008D2D0E94110AE114F10419F086EE0E94BC
:10448000C7090115110519F081EE0E94C709CD2B4E
:1044900019F08CE20E94110ACDB7DEB7E7E00C9468
:1044A0005E32EF92FF920F931F93CF93DF93EC0155
:1044B000162F0AE08881882309F454C0813009F05E
:1044C0004EC08981813099F47E0122E0E20EF11C18
:1044D0008A810E94110AE7012196812F815050F3B1
:1044E000EFE9FFE03197F1F700C00000F7CF82302D
:1044F00041F47E0182E0E80EF11C8A810E94760977
:10450000EACF833041F47E01E2E0EE0EF11C8A81B5
:104510000E94C709E0CF843011F02196DDCF2A81B7
:10452000229690E080E0AE014F5F5F4F2053330B47
:104530002A30310548F0019778F2EFE9FFE0319732
:10454000F1F700C00000F7CF089FB001099F700D80
:104550001124C901860F971F2981EA01E4CF0E9427
:10456000F421BACFCDB7DEB7E6E00C945F3260E05D
:104570000E94512208958FE891E00197F1F700C061
:104580000000089581E080939C0326982E9A22983B
:104590002A9A0E94BB2220919C034EE953E0FA0123
:1045A0008E2F841B821708F0089583B186FB88271D
:1045B00080F91A9904C090E0892B8193F1CF92E0A1
:1045C000FBCFA4E1B0E0E7EEF2E20C943C3210E065
:1045D00000E084E0C82ED12C9DEF992E882483948E
:1045E0002CEF722E80919C03181728F0802F649670
:1045F000EDE00C945832E12EF12CE3B1E6FBEE270E
:10460000E0F91A9991C080E08E2BD701A256BC4FD9
:10461000EC919E2F9370981709F484C0EE0FEE0F63
:10462000E82BEC93EF70F0E0ED56FE4FC701835698
:104630009C4F5C018081F5019081890F808320E08F
:1046400084308CF1F701E556FC4F80818F5F8083C9
:104650000E945D291B877C868D868160782F9F87CD
:104660008E87412F5CEF61E08F850E942B098FE3DD
:104670009FE10197F1F700C000000E945D29188BAF
:10468000798A1A8A8160782F9C8B8B8B412F5CEF03
:1046900060E08C890E942B09EFE3FFE13197F1F78D
:1046A00000C0000021E0F50180818D3F8CF5F7010D
:1046B000E556FC4F8081815080830E945D291983DB
:1046C0009A828B828160782F9D838C83412F5DEF4E
:1046D00061E08D810E942B098FE39FE10197F1F743
:1046E00000C000000E945D291E839F8218868160A1
:1046F000782F9A878987412F5DEF60E08A850E9435
:104700002B09EFE3FFE13197F1F700C0000021E052
:10471000F5018081082E000C990BB6010E9416321B
:104720008083022B1F5F5ECF82E06ECF80910201FB
:104730001F928F93809103011F928F9380910601A6
:104740001F928F93809107011F928F938091080190
:104750001F928F93809109011F928F9389ED94E0AE
:104760009F938F930E9450078DB79EB70E960FB6FA
:10477000F8949EBF0FBE8DBF0895883228F58E3104
:1047800008F072C08B3041F130F4873009F4CFC0AB
:1047900088E396E0E0C0833109F45FC08431C1F75B
:1047A0008AE596E00E94B7068091A303882309F466
:1047B000FEC01092A3031092A2031092A1031092C4
:1047C000A00310929F0320C08F3409F4C7C0D8F50E
:1047D000893231F38833E1F68DE596E00E94B70621
:1047E0000E9496231F9281E08F931F9288E08F93FF
:1047F00086E595E09F938F930E9450070F900F904E
:104800000F900F900F900F902091A303222309F493
:10481000C9C080919F039091A003009711F483EA8F
:1048200091E09F938F931F922F9386E296E09F9340
:104830008F930E9450070F900F900F900F900F9042
:104840000F9081E00895813509F49CC008F49CC064
:10485000823509F09DCF81E082C08CE496E00E9411
:10486000B7060E949623D0CF8D518093A303833047
:1048700009F442C058F48130C1F08230A1F11092A5
:10488000A30389E496E00E94B7061BC0853009F4B3
:1048900045C0D8F1863099F782E091E09093A20369
:1048A0008093A1038BEE91E008C089E091E09093A2
:1048B000A2038093A10387EA91E09093A0038093E1
:1048C0009F038091A303882309F49ECF1F928F93A7
:1048D00085E496E09F938F930E9450070F900F906E
:1048E0000F900F9091CF88E091E09093A203809376
:1048F000A10380EB91E0E1CF87E091E09093A203E8
:104900008093A1038CEB91E0D8CF86E091E0909367
:10491000A2038093A10389EC91E0CFCF83E091E0E3
:104920009093A2038093A10388ED91E0C6CF81E02C
:104930008093090184E1809308018AE08093070154
:104940008EE18093060188E08093030188E28093E2
:1049500002018BE396E00E94B70656CF8AE0E09111
:10496000A103F091A2033097D1F02081082E000C12
:10497000990B820F911D8F3F910541F03CF08FEF15
:10498000808307C08FEFEBCF86EFE9CF97FFF8CF9B
:10499000108280811F928F9382E396E09BCF8FE2FB
:1049A00096E0D9CF82E296E00E94B7064ACF80E037
:1049B0000895CF93C82F1F928F9383E796E09F931C
:1049C0008F930E94500781E001C0880FCA95EAF7D3
:1049D0000E94090D0E94B60C0F900F900F900F903F
:1049E000CF910895B0E0A0E0E8EFF4E20C944232F9
:1049F000EBEFE80FEF3308F044C1F0E0EA5FFC4C66
:104A00000C942A320E946B121F928F9383E29AE0D9
:104A10009F938F930E9450070E94661283FB9927F1
:104A200090F91F929F9382FB992790F91F929F9371
:104A300081FB992790F91F929F93982F91701F9255
:104A40009F931F928F938AED99E09F938F930E947B
:104A500050070E94701293FB222720F91F922F9378
:104A600087FB222720F91F922F9386FB222720F90C
:104A70001F922F9385FB222720F91F922F9384FBEF
:104A8000222720F91F922F9383FB222720F91F92C0
:104A90002F9382FB222720F91F922F9391FB22272D
:104AA00020F91F922F93292F21701F922F9381FBA2
:104AB000222720F91F922F93282F21701F922F93C6
:104AC0009F938F938BED98E09F938F930E94500755
:104AD0008DB79EB78A960FB6F8949EBF0FBE8DBF56
:104AE00081E01CC083EE9AE00E94B7060E94071383
:104AF000F7CF86E297E00E94B706F2CF8091860357
:104B0000807F809386038FEF96E00E94B7068FED3B
:104B10009AE00E94B70681E08093A403CDB7DEB788
:104B2000E7E00C945E3283EC9AE00E94B706809135
:104B30000A0190910B01892B99F20E945508D0CF60
:104B400090918603892F8E7F90FF816080938603EA
:104B500080FF03C087EB9AE0CECF8AEA9AE00E94FA
:104B6000B70680918603817F80938603B9CF9091A9
:104B70008603892F8D7F91FF82608093860381FF5A
:104B800008C08DE99AE00E94B70680918603816093
:104B9000EBCF8FE89AE0AFCF90918603892F8B7F80
:104BA00092FF84608093860382FF03C080E89AE0CE
:104BB000EACF80E79AE09FCF90918603892F877F85
:104BC00093FF88608093860383FF03C084E69AE0A6
:104BD000DACF87E59AE08FCF80E092E09F938F93C2
:104BE0008CEF96E09F938F930E9450070F900F9049
:104BF0000F900F9075CF0E946929062FF72EE82E8F
:104C0000D92EC091D903C7FBCC27C0F91091D80386
:104C1000D09118010E948A27DF92EF92FF920F93A2
:104C20001F92CF931F921F931F92DF931F928F9318
:104C300088E796E09F938F930E9450078DB79EB7A9
:104C40000E960FB6F8949EBF0FBE8DBF49CF0E943F
:104C5000B60C9091D903892F97FB87F980588093E0
:104C6000D90387FF03C08DE49AE045CF82E49AE040
:104C700042CF80E00E94D92433CF8953FBCF8D519E
:104C8000F9CF80E49AE00E94B70680E047CF80E049
:104C900008950E9447260895CF93C82F8091A403BA
:104CA0008130C1F0882339F0823009F444C0109279
:104CB000A40380E00DC00E9440118232D1F78C2FF6
:104CC0000E94472681111BC08C2F0E94F224817004
:104CD000CF9108950E944011823289F38C2F0E9457
:104CE000492681111BC0C431D9F060F4CB3071F07A
:104CF000C031D1F08DE696E00E94B70613C081E086
:104D000090E0E5CFC93261F0C833A1F78FEF96E0AC
:104D10000E94B7068FE696E00E94B70681E0D7CFE3
:104D20001092A40380E0D3CF82E08093A40388E3B1
:104D30000E94BD23F3CF8C2F0E94BD2381E0C8CFFA
:104D4000CF93DF93EB0186319C4511F50E94401112
:104D50009A81992399F08A7A91E009F490E09093EE
:104D6000A503811109C089E20E94F0100E949C11E4
:104D700080E0DF91CF91089585E3F6CF8091A50380
:104D8000811104C089E20E94F810F0CF85E3FBCFC7
:104D900081E0EFCF0F931F93CF93DF93C42FD22FD8
:104DA000FC0182818823C9F04093A8030E945D29F9
:104DB0009093A7038093A60380E28C0F883040F481
:104DC000C77081E001C0880FCA95EAF70E941A0AED
:104DD000DF91CF911F910F9108951091A8031413A3
:104DE00032C08091A6039091A7030E947529883C48
:104DF000910548F5C0E2CD0F1D17B9F080E2810F93
:104E0000883040F4177081E001C0880F1A95EAF7E6
:104E10000E94210AC83048F481E09D2F977001C09C
:104E2000880F9A95EAF70E941A0A802F0E94110AA9
:104E3000C83070F6D77081E001C0880FDA95EAF7C4
:104E40000E94210AC5CF80E28C0F883008F6C77017
:104E500081E001C0880FCA95EAF7F2CF0F939C0159
:104E6000CB01233F4CE5340759F1A8F4283DFCE57C
:104E70003F0701F1293D4CE53407D1F1273D3C4581
:104E800091F406E221EE41EE67ED7CE50E94CA2630
:104E900080E00F910895253FFCE53F07E9F0B0F071
:104EA000263F3C45F9F0FC018281882339F11092BC
:104EB000A803EFCF07E225EE45EE68ED7CE5E6CFEF
:104EC00006E221EE40EE63EF7CE5E0CF07E225EE5F
:104ED00044EE64EF7CE5DACF06E221EE42EE65EFC8
:104EE0007CE5D4CF07E225EE46EE66EF7CE5CECF3B
:104EF00008E221E045EE69ED7CE5C8CF81E0C9CF4D
:104F00009093D1028093D00208959093AE03809342
:104F1000AD030895E091AD03F091AE03309729F011
:104F20000190F081E02D0995089580E00895E091C9
:104F3000AD03F091AE03309799F020911801222330
:104F400059F02091D90327FF07C0DC012C9111965D
:104F50002C93119726E02C930280F381E02D099584
:104F60000895E091AD03F091AE03309739F022E05F
:104F7000DC012C930480F581E02D099508952091A2
:104F8000AB033091AC032817390771F09093AC0351
:104F90008093AB03E091AD03F091AE03309721F025
:104FA0000680F781E02D099508952091A90330919D
:104FB000AA032817390771F09093AA038093A903D5
:104FC000E091AD03F091AE03309721F00084F185BC
:104FD000E02D09950895FC013296809118018823EF
:104FE00021F08091D9039EE187FF96E080E0915007
:104FF00008F4089521912223D1F38F5FF8CF66231F
:1050000001F1209118012223F1F02091D90327FF0B
:105010001AC0462F4695469546954E3190F46770D6
:1050200021E030E002C0220F331F6A95E2F7840FBF
:10503000911DFC01828190E02823392381E0232BFC
:1050400069F480E00895FC013296089621912617B4
:1050500021F0E817F907D1F7F4CF81E008959C011A
:10506000FC0132969FEF80E04191461751F09F3F3F
:1050700019F4411101C0982F8F5F8630A9F79F3F27
:1050800009F40895290F311D97FD3A95F9016283BE
:105090000895FC01329608962191261303C0DF0182
:1050A00011971C92E817F907B9F70895E62FE695CE
:1050B000E695E695EE3168F4E80FF92FF11D67707B
:1050C00021E030E001C0220F6A95EAF78281822B4D
:1050D00082830895E62FE695E695E695EE3170F425
:1050E000E80FF92FF11D677021E030E001C0220FB9
:1050F0006A95EAF7209582812823228308952091DA
:105100001801222339F02091D90327FF03C00E9400
:10511000562808950E942F280895209118012223CF
:1051200039F02091D90327FF03C00E946A2808950F
:105130000E9449280895FC01329680911801882325
:1051400051F08091D90387FF06C08EE1DF011D92E7
:105150008A95E9F7089586E0F9CF46E050E00E948D
:105160008B3221E0892B09F420E0822F08950895E5
:105170000E94B7280895811106C081E08093AF0393
:105180000E94B828089582E0F9CF83E08093AF03AE
:105190000E94B82808950E94BB28089581E080935A
:1051A000AF030E94B82808950E94CE28089508955C
:1051B00008950E94D8280895089508950E94D72838
:1051C0000895CF930E94DC280E941E170E94DD28BC
:1051D000C0E08C2F0E941216892B31F4CF5FC430AF
:1051E000C1F780E0CF91089581E0FCCF85B780685A
:1051F00085BF85B7806885BF08951F921FB61F922F
:1052000011248F939F93AF93BF938091B00381112B
:1052100013C08091ED039091EE03A091EF03B09144
:10522000F0034196A11DB11D8093ED039093EE0311
:10523000A093EF03B093F003BF91AF919F918F9133
:105240001F901FBE1F9018958091F503843031F197
:105250000E94C7081092B00388E190E020E40FB6E6
:10526000F894A895809360000FBE2093600083B7E8
:10527000817F846083BF83B7816083BF7894889582
:1052800083B78E7F83BF0FB6F894A8958091600096
:10529000886180936000109260000FBE08950E94A4
:1052A000B60C0E94CC08089582E084BD93E095BDC1
:1052B0009AEF97BD80936E0008952FB7F894809170
:1052C000ED039091EE03A091EF03B091F0032FBF97
:1052D00008952FB7F8946091ED037091EE038091DB
:1052E000EF039091F0032FBF08959C014FB7F894FE
:1052F0008091ED039091EE03A091EF03B091F00344
:105300004FBF821B930B089578941F921FB61F9274
:1053100011248F939F93AF93BF938091ED0390914E
:10532000EE03A091EF03B091F0030196A11DB11D12
:105330008093ED039093EE03A093EF03B093F003FB
:10534000BF91AF919F918F911F901FBE1F90189595
:1053500087E797E7909301088093000888E19AE037
:105360000FB6F894A895809360000FBE90936000EC
:10537000FFCF88E19AE00FB6F894A895809360007B
:105380000FBE90936000FFCF8091D70308950895DA
:105390009C0184E08093E9009FEF8091E8009150A8
:1053A00085FD06C085ED8A95F1F700009111F5CFD6
:1053B0008091E80085FF0CC050E040E066E070E0BE
:1053C000C9010E94352D8091E8008E778093E80016
:1053D0000895CF93DF93EC01809118018823B1F1F8
:1053E0008091D90387FF32C060E284E08093E900B6
:1053F0008FEF9091E800815095FD06C095ED9A954C
:10540000F1F700008111F5CF8091E80085FF1BC006
:105410008091180170E050E040E0811104C050E03C
:1054200040E068E070E0CE010E94352D8091E800F8
:105430008E778093E80080E2FE01A7EBB3E0019055
:105440000D928A95E1F7DF91CF91089568E081E0B0
:10545000CDCF8093B3037093B5036093B403809171
:10546000F5038430F9F48093E9008FEF9091E80020
:10547000815095FD06C095ED9A95F1F700008111D8
:10548000F5CF8091E80085FF0DC050E040E063E07B
:1054900070E083EB93E00E94352D8091E8008E77D9
:1054A0008093E8000895BC0184E00E94292A0895B1
:1054B000BC0183E00E94292A0895CF93FC01603249
:1054C00021F58091F503843001F5C091E900CF709A
:1054D0002091EC00922F917020FD90E8C92B82E082
:1054E0008093E9008091E80080FF0CC050E040E02C
:1054F00060E270E0CF010E94352D8091E8008E7748
:105500008093E800CF70C093E900CF91089588E0C0
:105510009BE00E94B7068091F403811109C00E94AC
:10552000142F0E94712F8091E20084608093E2002A
:10553000089584E09BE00E94B7061092F40308955A
:1055400080E09BE00E94B7060E94CE2808958CEF71
:105550009AE00E94B7066091F10381E0611101C0F9
:1055600080E00E94C528089588EF9AE00E94B7065F
:105570009091F50381E0943009F080E06091F103AF
:105580000E94CB2808952091B2032F5F822F62E3FF
:105590000E940A32992319F02093B20308951092C1
:1055A000B2038091B6038823F1F08091F503843033
:1055B000C1F49091E9009F702091EC00822F8170DE
:1055C00020FD80E8892B95E09093E9009091EB0015
:1055D00090FF04C09091EE0097FD08C08F708093FB
:1055E000E9001092B60308951092F1009091E8003E
:1055F00095FDFACF9091E80090FFF0CF9091E800F0
:105600009E779093E800EACF42E061EC81E00E944F
:10561000902E42E261EC84E00E94902E42E261EC26
:1056200082E00E94902E42E260EC83E00E94902E85
:1056300042E261EC85E00E94902E9091F50381E0BA
:10564000943009F080E06091F1030E94BB28089536
:105650008091F703833009F463C030F48130E1F1C5
:10566000823009F4A0C008958A3009F48CC08B30D0
:1056700009F471C0893009F052C08091F60381327B
:1056800009F04DC08091FA039091FB03009719F047
:10569000029709F044C08091E800877F8093E8007A
:1056A0008091E80082FF37C09091F3008091F20072
:1056B000029731F48091F100813011F0863021F4AD
:1056C0008091F1008093D7038091E8008B778093DD
:1056D000E8000E94C42E23C08091F603813AF9F4B9
:1056E0008091E800877F8093E8008091FA03909191
:1056F000FB03892B61F460E287EB93E070E00E948A
:10570000D32D8091E8008B778093E800089560E0C6
:1057100090E080E0F3CF8091F5038111C1CF08952F
:105720008091F603813AD9F78091FA039091FB03B7
:10573000892BA9F78091E800877F8093E80080910A
:10574000E80080FFFCCF809118018093F1008091E8
:10575000E8008E77BCCF8091F603813201F780910B
:10576000FA039091FB03892BD1F68091E800877FA3
:105770008093E8000E94C42E8091F8038093180162
:105780000E94B60C08958091F603813241F6809113
:10579000E800877F8093E8000E94C42E8091F9037F
:1057A0008093D80308958091F603813A09F0B7CF2A
:1057B0008091E800877F8093E8008091E80080FF77
:1057C000FCCF8091D803C1CF9FB7F8941092B60355
:1057D0009FBF9091F503943009F048C02091E900F3
:1057E0002F703091EC00932F917030FD90E8922B48
:1057F00025E02093E9002091EB0020FF34C02091A8
:10580000EE0027FF30C02091B103222321F0209128
:10581000E80025FF28C01092B10326E03091E8008F
:1058200035FF14C08093F1008091E80085FD27C00A
:105830008091E80080FFFCCF8091E8008E77809314
:10584000E8009F709093E90080E008953091F5039F
:10585000343049F43091EB0035FD05C0215041F45E
:1058600081E08093B1039F709093E9008FEF0895DA
:10587000EFE9FFE03197F1F700C00000CFCF8FB71D
:10588000F89421E02093B6038FBFDBCF84B7877FE6
:1058900084BF0FB6F894A8958091600088618093CA
:1058A0006000109260000FBE80E890E00FB6F894A0
:1058B00080936100909361000FBE0E94D4280895E8
:1058C0000E94142F0E94712FE2EEF0E0808184602C
:1058D000808378940E94EF3108958CE091E00E94DB
:1058E000852708958091F503853051F484EF9AE07F
:1058F0000E94B7068091F503853019F00E944F2968
:1059000008950E9424298091F303882399F30E942B
:10591000E128882379F30E941F2D0E94B60CEACF5C
:10592000A0E2B0E0E6E9FCE20C9447328091F50396
:10593000843009F583E08093E9008091E80082FFDC
:105940001AC08091E80090E085FF09C050E040E077
:1059500060E270E0CE0101960E94842D91E080917A
:10596000E8008B778093E800992329F060E2CE016C
:1059700001960E94731BA096E2E00C9463320E9491
:10598000C22C0895292F33272330310521F168F4E3
:105990002130310509F449C02230310509F44AC0EB
:1059A00090E080E030E020E029C02132310581F133
:1059B00022323105A9F76430710590F7FB01EE0F33
:1059C000FF1FE154FD4F2081318165547D4FFB0164
:1059D000808190E013C099278130910599F000975C
:1059E00041F08230910589F00397D1F6ECE0FBE0BD
:1059F00002C0E6E4FBE0849190E09F01FA0131836C
:105A000020830895EAE3FBE0F6CFEAE2FBE0F3CF80
:105A10006430710528F6660F771FFB01E953FD4FCF
:105A20002081318189E090E0E9CF82E190E025ECAE
:105A30003BE0E4CF8BE790E02AE43BE0DFCF80E17E
:105A400089BD82E189BD09B400FEFDCF8091D800F7
:105A50008F7D8093D8008091E00082608093E00089
:105A60008091E00081FDFCCF0895AF92BF92CF926C
:105A7000DF92FF920F931F93CF93DF936C01EB01A3
:105A80008A010E94E32EF82E811123C00115110511
:105A900039F0F80180819181C81BD90BC80ED91E3D
:105AA000B12CA12C2097A9F08091E80085FD22C09F
:105AB0008091E8008E778093E80001151105A1F030
:105AC000F80180819181A80EB91EB182A08285E083
:105AD000F82E8F2DDF91CF911F910F91FF90DF90C6
